:020000040000FA
:0600000002010702285F67
:03002B00022CC6DE
:03003B00022CE7AD
:03004300022C6D1F
:030053000228D2AE
:03005B00022D5023
:03007B00022DD57E
:100083000226CBE5C754F84401F5C77901220000E5
:100093000080FB120086B900030200F1E4792178A5
:1000A30008B800028004F709D8FCE479297802B87B
:1000B30000028004F709D8FCE490028178457909AD
:1000C3008002F0A3D8FCD9FA7AC57B0A900137786D
:1000D3001479048015E493A3AD82AE838A828B8363
:1000E300F0A3AA82AB838D828E83D8E9D9E7758288
:1000F300617583CC74031201197582917583007441
:100103000012011975D00075813F751881751902A8
:10011300759F00020096C09FF59FE473D09F22D085
:1001230083D082C09FE493C0E0740193C0E0740263
:1001330093F59F22FF0000B4000028002800283018
:1001430075A000A000A000A00000080008E001F0D6
:10015300001000100010001000100010005000509C
:1001630000500010001000D0070000000000000F36
:100173000001000500307507001000010081FF0039
:10018300000000FF480666064E06FF020202080250
:100193005000A0000000E803026D820100002E82DF
:1001A3000237820100001C0B023D82010000B302F2
:1001B3000237820100001D0B023F82010000C902C9
:1001C3000237820100001E0B024182010000CB02B4
:1001D3000237820100001F0B024382080000CC0299
:1001E300023782010000200B024582010000210B2F
:1001F300FF0100FF20026D820100001F820237828F
:10020300010000850B0247820000000000023B82D0
:100213000300001903000C000C000C000C000C0080
:100223000C000C000C000C000C000C000C000C82E9
:100233000E9A0E7C0EFFFF110199010F1264040147
:10024300026D820100002882023782010000CD0B7B
:10025300025F82010000CE0B023B820300006407B1
:10026300024982010000CF0B0202020202020202D3
:1002730002010D0000001001026D820100002282C4
:10028300023782010000F90B0255820100006A0760
:10029300023782010000FA0B025382010000A98198
:1002A300023782010000FB0B0251820100009B8197
:1002B300023782010000FC0B024F820100000D8116
:1002C300023782010000FD0B024D820100001F81F5
:1002D300023782010000FE0B023382010000E98035
:1002E300023782010000FF0B025B82010000FB80EA
:1002F300023782010000000C025D820100008D8143
:10030300023782010000010C026382010000020C2B
:1003130001E803053F100A0A094865696D64616CC9
:100323006C7202010501024D54204261627920542E
:10033300616700000000000000000000D011000011
:10034300D6111248756D69642E2044617461000AE8
:1003530048756D69642E20436F6E662E000A0A4845
:10036300756D69642E20506572696F6400026D8239
:100373000100002582023782010000D30C0267824C
:100383000100000B0A023B820300000F0A023982BC
:10039300010000D40C023782010000E00C026982E4
:1003A300030000150A023982010000E10C023782C2
:1003B300010000EE0C026B82030000EF0C02398295
:1003C300010000F00CFF000130750302010600007C
:1003D300000000000000000000000000000000001A
:1003E30000000000000000000000FFFF0600800C7A
:1003F300E8033031323334353637383941424344F8
:10040300454600286E756C6C20706F696E7465725A
:100413002900303132333435363738396162636419
:100423006566003F3F3F000000807F0000803F0083
:10043300000000F9021550B743BA510000204100F3
:10044300E7DB2E0000A0401201221BBA0312012297
:1004530032BA0312012263BA031201229EBA0312B3
:100463000122C8BA03120122F2BA0312012209BB04
:100473000312012220BB0312012237BB0312012204
:1004830060BB0312012273BB0312012289BB031257
:1004930001229CBB03120122C3BB031201228E75EE
:1004A30000120122927600120122CA760012012262
:1004B300ED7600120122F876001201221B7700125A
:1004C30001222A7800120122FF78001201227A7990
:1004D30000120122027A001201223D7A0012012247
:1004E300747A00120122027B00120122DB7B0012CC
:1004F30001223B7C00120122467C00120122C57CB2
:1005030000120122C87C00120122CB7C00120122BE
:100513005A7D001201225D7D001201228D7D0012A1
:100523000122B77D00120122A57E00120122577F0E
:1005330000120122008003120122288003120122EB
:100543005680031201228D8003120122EB800312D5
:100553000122368103120122818103120122C1810A
:1005630003120122078203120122358203120122A0
:10057300F28203120122FC82031201220983031275
:1005830001223C83031201220884031201221484F2
:10059300031201222C840312012236840312012246
:1005A300E0C603120122EEC60312012206C703129C
:1005B30001221EC70312012257EB0112012203EC91
:1005C300011201227EEC011201229FED0112012290
:1005D300DBED0112012284EE011201226BEF011205
:1005E3000122CFF00112012226F101120122A7F10B
:1005F3000112012297F201120122E4F201120122F7
:100603006AF3011201229CF301120122B0F50112D7
:100613000122F2F50112012210F60112012293F6D2
:100623000112012267F7011201222FF801120122A0
:100633003EED0212012211EE02120122BAEE021263
:1006430001220DEF02120122BDEF0212012249F035
:100653000212012235F10212012264F10212012277
:1006630077F202120122BFF20212012294F3021264
:100673000122D0F302120122ECF30212012289CAF1
:1006830003120122319A03120122479A0312012213
:100693006D9A03120122899B03120122939B031279
:1006A3000122C89C03120122C09D03120122C3F937
:1006B30002120122F3FA0212012226FB0212012284
:1006C30070FB0212012237FD0212012230CC01120B
:1006D30001229ACC01120122F9CD0112012209CE85
:1006E3000112012236CE011201228DCE0112012206
:1006F30036CF011201223DD00112012207D101128E
:10070300012267D201120122AAD2011201224FD380
:10071300011201229CD301120122C2D30112012230
:10072300D0D501120122D5D501120122DAD7011247
:10073300012227D8011201229AD801120122CDD811
:10074300011201226FD90112012218DA01120122CA
:1007530050DA0112012253DA011201229BDA01124B
:100763000122DBDA0112012232DB01120122ACB0D9
:1007730003120122C4B0031201220CB1031201229D
:1007830022B10312012269B1031201227DB20312C5
:1007930001220AB30312012255B3031201222C2EA4
:1007A30000120122382E00120122732E00120122A0
:1007B300B82E00120122782F00120122FE2F001200
:1007C30001222A3000120122633000120122A132D9
:1007D300001201228534001201226B36001201221D
:1007E300AE3700120122FC39001201220E3B001227
:1007F3000122593C00120122693D00120122863D6B
:1008030000120122C13D00120122E33D0012012228
:10081300463E001201220743001201229C430012AC
:100823000122ED4300120122144400120122664406
:1008330000120122844400120122DE44001201222C
:10084300DD4500120122614600120122BD8403121C
:100853000122C784031201220A850312012225857E
:1008630003120122B58503120122DD850312012241
:100873001A86031201225186031201227A86031279
:100883000122EF8603120122048703120122198732
:10089300031201224A87031201225E8703120122F7
:1008A300838703120122BD8703120122E987031202
:1008B30001226C8803120122B58803120122DF880A
:1008C300031201220A8903120122C7C5031201225E
:1008D3005AC50212012288C502120122D6C602128B
:1008E3000122B6C702120122D5C70212012252C841
:1008F3000212012295C802120122EBC9021201223F
:10090300ACCA0212012233CD02120122D4CD02124B
:100913000122CACE02120122C7CF0212012221D123
:1009230002120122ACD10212012286C0031201225B
:10093300EFC00312012243C1031201226AC1031251
:1009430001229BC1031201223289031201229F89D2
:1009530003120122E68903120122FE8A03120122F5
:10096300FA8B03120122DD8C031201225BDD0212DA
:1009730001229DDD021201226FDE0212012248DFF5
:100983000212012242E00212012224E10212012298
:100993008DE10212012243E202120122B7E20212A6
:1009A300012223E3021201224CE302120122C6E3D5
:1009B300021201225FE402120122C4E402120122A4
:1009C300D9E4021201221FE50212012238E50212C4
:1009D30001229DE502120122A0E502120122B3AD1C
:1009E30003120122DBAD0312012219AE031201220D
:1009F300D7AE031201223EAF031201225AAF0312F4
:100A0300012282AF03120122B2AF03120122C1AF4E
:100A1300031201223EB00312012264B00312012229
:100A23001FDC01120122FDDD011201222FE0011260
:100A330001226BE00112012298E00112012282E1FE
:100A430001120122CDE10112012218E20112012259
:100A53002AE2011201226AE2011201229FE201123B
:100A63000122EDE2011201221CE3011201223FE304
:100A7300011201228CE30112012211E4011201226D
:100A83002BE6011201226AE801120122ABE80112EE
:100A930001224DEA011201228EEA0112012201EB29
:100AA3000112012245B80212012243B902120122A6
:100AB300DCBF02120122FDC102120122C8C30212CD
:100AC300012230C502120122C846001201227747D3
:100AD30000120122BD4700120122FD48001201222B
:100AE300934A001201220D4B00120122284B0012DF
:100AF3000122A34B00120122FD4C001201225D4E84
:100B030000120122634F00120122C450001201227D
:100B1300DD50001201223B51001201222952001222
:100B230001225C5200120122CC52001201224653D0
:100B3300001201229053001201225A540012012282
:100B43002F55001201220E5600120122995600124F
:100B530001220757001201227B5700120122A657D8
:100B630000120122655800120122CA590012012203
:100B7300E75900120122065A00120122F75A001205
:100B830001221C5B00120122465B00120122C15BA1
:100B9300001201221B5C00120122845D001201225B
:100BA300325E00120122735E0012012271AA021248
:100BB3000122BFAA02120122CBAA02120122A9AB6F
:100BC30002120122DAAB021201220BAC0212012241
:100BD3008BAC02120122C3AC0212012215AD021228
:100BE300012252AD021201226FAF0212012295B10E
:100BF3000212012280B3021201226AB502120122FB
:100C0300212E001201227F9701120122AF970112B8
:100C13000122889E011201220DA0011201220AA6BF
:100C230001120122F2A6011201222FA701120122B1
:100C330052A70112012283A7011201228CA70112DC
:100C4300012296A70112012284A8011201227AA986
:100C5300011201227082011201226F860112012208
:100C6300758601120122B08D01120122C99201126F
:100C7300012218A10312012212A20312012286A249
:100C830003120122C4A20312012238A30312012278
:100C9300B1A303120122BAA303120122C6A30312B2
:100CA3000122DBA30312012219A4031201222FA4A0
:100CB300031201220692031201221392031201224C
:100CC3002D92031201226C9203120122AA920312A3
:100CD30001220F93031201222493031201222F9363
:100CE300031201223C9303120122539303120122A4
:100CF3006193031201226C9303120122789303126E
:100D03000122879303120122929303120122B593C6
:100D1300031201225C94031201226C940312012238
:100D2300869403120122A39403120122BF94031297
:100D33000122E49403120122EF9403120122049589
:100D4300031201221895031201227995031201223D
:100D53007F95031201228595031201228B950312BD
:100D63000122A39503120122D69503120122718E4B
:100D730002120122F58E02120122A48F0212012215
:100D830003910212012224930212012210940212EF
:100D93000122459402120122679402120122169540
:100DA300021201220E970212012237970212012228
:100DB300C99702120122FB9702120122089802121C
:100DC30001225F9802120122859802120122F29AEF
:100DD30002120122F59B021201224D9C02120122F2
:100DE3000080021201220A8102120122F181021201
:100DF3000122FB81021201221D8202120122298299
:100E030002120122C28302120122F1830212012281
:100E13000D8502120122668502120122CC8602127E
:100E23000122AB8702120122078802120122748871
:100E330002120122AF8802120122EE88021201225D
:100E4300A78B02120122C18B021201224D8C0212C6
:100E530001225B8C02120122B48C02120122C28C89
:100E630002120122358D02120122998D02120122F2
:100E7300E38D021201222DD2021201224FD202125D
:100E8300012275D4021201228AD702120122A2D8AA
:100E93000212012255D90212012237DA021201226B
:100EA300D5BB03120122FABB031201226CBC03124D
:100EB3000122C4E502120122CDE502120122D6E588
:100EC30002120122ADE6021201225EE802120122A1
:100ED30094E802120122CEE80212012204E902126E
:100EE30001223EE90212012272E9021201229EE965
:100EF30002120122E7E90212012221EA021201226F
:100F03006AEA02120122C2EA02120122F7EA02127B
:100F1300012252EB021201228CEB02120122DDEBC1
:100F23000212012213EC021201224DEC02120122E1
:100F33007BEC021201229EEC02120122DEC9031293
:100F430001220ACA0312012265CA031201226FCACF
:100F5300031201227FCA0312012248FA011201225D
:100F630052FA0112012294FA01120122DFFA01124C
:100F7300012236FB0112012290FB01120122B3FB75
:100F830001120122BDFB011201220EFC01120122FA
:100F93003CFC0112012226FD011201224DFE011229
:100FA30001228DFE01120122D3FE01120122E5FE70
:100FB3000112012204FF011201220DFF011201227D
:100FC300C3FF0112012288C403120122FACB0312C8
:100FD30001225FA40312012295A4031201220DA68C
:100FE3000312012256A70312012290CB03120122FE
:100FF300A6CB03120122B0CB031201229F8D031251
:101003000122B48D031201229C8E03120122D08E81
:10101300031201221D8F031201227B8F031201226F
:10102300E78F031201227ABD031201228CBD031242
:101033000122B5BD03120122CDBD03120122B5BEAB
:1010430003120122B8AA03120122F3AA03120122F6
:1010530010AB03120122CDAB031201225DAC0312CC
:101063000122D4AC0312012290A703120122B5A7D7
:1010730003120122DFA703120122B4CC03120122BF
:10108300A35E001201222F6100120122F1620012FD
:1010930001225364001201221266001201223B66F0
:1010A30000120122E96900120122416B00120122A0
:1010B300816B00120122446E00120122256F00127F
:1010C30001225B70001201226B7000120122D173A6
:1010D30000120122B7C703120122C8C7031201225B
:1010E3006AC80312012238CD031201222BC903124D
:1010F3000122A0C903120122EDFF01120122E1C165
:1011030003120122ECC103120122FEC103120122C8
:101113005DC2031201226DC2031201228BC20312AC
:101123000122B9C2031201222CC303120122EAFED7
:101133000212012271FF02120122D7FF02120122C1
:1011430036C3031201225AC303120122FDC3031241
:1011530001227FB3031201224EB40312012261B5AF
:101163000312012275C803120122C0C8031201220F
:101173000BC9031201223EB8031201227FB80312E6
:101183000122DFB80312012243B903120122E5B998
:1011930003120122539603120122EE960312012237
:1011A3007E9703120122FB97031201228A980312EE
:1011B30001222E99031201228E99031201222E9AE3
:1011C3000312012261F402120122F7F60212012234
:1011D300D6F8021201226DF902120122CA9D0312EE
:1011E30001220F9E031201223D9E031201227E9EC5
:1011F30003120122699F03120122DFA003120122BD
:101203001FBF0312012274BF0312012201C0031284
:101213000122F5B5031201221FB603120122F1B612
:1012230003120122C8B7031201229B9C021201225E
:1012330063A00212012203A1021201221DA40212C1
:10124300012291A702120122A8A70212012241A999
:10125300021201228BA902120122F5BB0112012203
:10126300B1C0011201223CC2011201228CC201123F
:1012730001220AC301120122F2C60112012200C88F
:10128300011201223BCD0312012292AB0112012272
:10129300A2B001120122C87F0012012274CD0312F1
:1012A30001220DCB0312012237CB03E06670100835
:1012B300A3E066700A08A3E066700408A3E0662250
:1012C300C008C3E096F50808A3E096420808A3E027
:1012D30096420808A3E0964208A2D265D033E508F7
:1012E3007001D3D00822C3E7960809E7960809E7F7
:1012F300960809E79622C3E09608A3E09608A3E0C0
:101303009608A3E09622C008C3E096F50808A3E078
:1013130096420808A3E096420808A3E096450870A1
:1013230001D3D00822080808E630E711121BE212A5
:101333001340080808C64480C6181818221818183D
:10134300E9799EC608CAC608CBC608CCC6C37020B6
:101353007996CACBCC7019798ECBCC70137986CCA5
:10136300700EF9802ACA33CACB33CBCC33CC3319B2
:1013730030E7F2CCCBCA3350147004EA30E00DE40A
:10138300CA3ACACB3BCBCC3CCC500209C3E913C607
:10139300CC182313C6CB18C6CA18C6F9221213E0F9
:1013A30020F01430E72B74FFFCFBFA747F8022E4F7
:1013B300FCFBFA7480801AB48008BC00F2BB00EF17
:1013C300800F50EBF9E4C39AFAE49BFBE49CFCE442
:1013D30099C6CC18C6CB18C6CA18C6F922E4C9C622
:1013E30008CAC608CBC6D3330308CCC63392F0C3AE
:1013F300947F402E94184019C9B90704CACBCC2254
:101403005025C309CA33CACB33CBCC33CC33D9F43D
:1014130022F4600DC9CCC313CB13CBCA13CAD9F6BC
:10142300CC22E4FCFBFA2214FCFBFA22E626184643
:101433001846184622E7271947194719472218184B
:1014430018E60846087009E626087005E633F42214
:101453000822191919E70947097009E727097005CF
:10146300E733F4220922E6084608C313460833602B
:1014730002E633F422E7094709C31347093360023D
:10148300E733F422121469602512147860201214D1
:101493002F7003021438080808E76670101819E75C
:1014A30066700A1819E76670041819E76622F422B1
:1014B300121469601C121478601712142F7007122B
:1014C30014387001D322C0D01214387006D0D0B3B0
:1014D30022C32233D0D0501430E0F6C3E796080974
:1014E300E7960809E7960809E796B32220E0D5E6D0
:1014F300970809E6970809E6970809E697B32212C1
:101503001469601B121478601612142F70071214DA
:1015130038600CB322C0D01214387005D0D022C367
:101523002233D0D0501330E0EBC3E7960809E79697
:101533000809E7960809E7962220E0E4E6970809F8
:10154300E6970809E6970809E697220012146960EE
:101553004F1214786012E7548066F612144170112A
:10156300121438703B090909F4F618F618F618F640
:1015730022121455701512142F08080860EAE64465
:101583007FF618768018E4F618F62212142F6016E8
:101593001214387012E4F608F608F608E65480F6DA
:1015A30009090918181822EAC0E0EBC0E0ECC0E012
:1015B300EDC0E0E687F0A4FBACF008E687F0A42CCE
:1015C300FCE435F0FA1809E687F0A42C4B600274AA
:1015D30001CA35F0FCE433FB09E687F0D2F7A42C0B
:1015E300CB35F0FC1908E687F0A42BCC35F0FBE4EF
:1015F30033FD0819E687F0D2E7A42C4ACB35F0CDAA
:101603003400FC09E687F0D2E7A42DCC35F0FDE4E5
:1016130033FA0918E687F0D2F7A42CCD35F0CA3493
:1016230000FC08E687F0D2E7D2F7A42ACC35F07A9B
:101633007E20E70B0ACB33CBCD33CDCC33CC33CBAE
:101643003350147004ED30E00ED2F1E4CD3DCDCC37
:101653003CCC3B5005DA05C2F1EB547FC63308E6B8
:101663003392F0FBE73309E733C39A502D2B7019FC
:101673000C0D4C4D70151806E608C333700D20F1A0
:101683000AA2F013F6E418800B4024E4F630F002CB
:10169300768018F618F618F68024D33B145010748D
:1016A300FFA2F013F6187680E418F618F6800FA25E
:1016B300F013F618E63303F618ECF618EDF6D0E05F
:1016C300FDD0E0FCD0E0FBD0E0FA221214786046B3
:1016D300121469603DE9687008F618F618F618F6F2
:1016E30022748067F7121702090909748067F722C9
:1016F300121469601D1214787005191919801A12D1
:101703001441701F121455C37003E6673319191976
:1017130040071818182208080874FFF618F618F678
:1017230018F6221214556017121438702192F01211
:10173300142F7019501720F014080808090909E735
:10174300F61819E7F61819E7F61819E7F62212142E
:101753002F60E6E869701F0808E62480F608E4367F
:10176300F618547FB47F0CE654806007F6E418F64D
:1017730018F622181822E9C6CC08C6CD08C6CE082A
:10178300C6CFC0E0E8C0E0EAC0E0EBC0E009E9F89A
:1017930009E7FA09E7FBE6F918E6F8C3EC98ED99CF
:1017A300EE9AEBC2E7F5F0EFC2E795F0500E600C4E
:1017B300EBCFFBEACEFAE9CDF9E8CCF8EAA2E7D21F
:1017C300E7FAEB33FB13F5F0EEA2E7D2E7FEEF33D4
:1017D300FFC5F013A2E730E601B313C5F0C3C0E0C1
:1017E300C0F07F00C39BFB605E9418600F401D1424
:1017F300601AD0E023F9D0E0F80218D48AF0E9485F
:101803006003D2F0E4AFF0FAF9F8803BEB30E40D7B
:1018130089F0EA6003D2F0E4AFF0F9CAF8EB30E301
:101823000D88F0EF6002D2F0AFF0E4CAC9F8EB54D0
:10183300076014FBC3EA13FAE913F9E813F8EF138B
:101843005002D2E0FFDBEDD0E0C0E030E739C3E483
:101853009FFFF5F0EC98FC42F0ED99FD42F0EE9A13
:10186300FE42F0D0E0F9D0E0F8E5F0607AE923F940
:10187300EE20E742D8028067C3EF33FFEC33FCED81
:1018830033FDEE33FE80EAEC28FCED39FDEE3AFE43
:10189300D0E023F9D0E0F84002801BC3EE13FEED45
:1018A30013FDEC13FCEF135002D2E0FF08B800065F
:1018B3007F7F74FF802EEF3350178CF020F002608F
:1018C300100CBC000C0DBD00080EBE000408E8603F
:1018D300DFE933E813FFEE2313FE4F4D4C8008E995
:1018E3005480FFE4FEFDFCEE33EF33F47004FCFDA3
:1018F3007E80D0E0FBD0E0FAD0E0F8D0E0CFC6188D
:10190300CEC618CDC618CCC6F922121469700418B5
:10191300181822121478700D74FFF61819F6181996
:10192300F61819F622E7548066F612142F700F1278
:10193300143870F014F608F608F608F680D112147D
:1019430038700CF608F608768008E6447F80EC12BF
:101953001458700C12144460BFE65480F6E480BB44
:10196300121444700519191980A5E869700C763FA3
:1019730018768018F618F6E8F922E6CDC0E018ECE0
:10198300C0E0E633CD33CDD313F6E719FCE71919DD
:1019930033CC33C3947F400ECD9D502408E654804E
:1019A300F6E418F6800FF4043D14501408E6447F5F
:1019B300F6187680E418F618F6D0E0FCD0E0FD22A5
:1019C300CCD313CCFD18E4C6CBC0E018E4C6CAC020
:1019D300E00808ED08C633E613F618E433C675F0DD
:1019E30003C3CA97CA09CB97CB199C40047D0880CF
:1019F3002EBD0003021AB616B6FF05060608161812
:101A0300C3CA33CACB33CB33CA27CA09CB37CB19A3
:101A13003CC37D08803E187D0820E75CC633C6CAF8
:101A230033CACB33CB33DDF1D5F0EB30E77BCA9749
:101A3300CA09CB974ACB199C406F4B7025E620E02F
:101A4300218066187D08C3CA97CA09CB97CB199C16
:101A5300D3C633C6CA33CACB33CB3350C9DDE7D57C
:101A6300F0E1D3E4C636C608C636C608C636C6088D
:101A7300C636C61818188031C3CA97CA09CB97CB84
:101A8300199CB34097C633C6CA33CACB33CB33DDB5
:101A930034D5F02EC6A2E0C640C8CA27CA09CB3740
:101AA300194A70BECB3CB480B90808E63308E63364
:101AB300601F181818D0E0FAD0E0FBD0E0FCD0E0AB
:101AC300FD22187D08CA27CA09CB37CB193CD3801E
:101AD3008013F618E4B67F11F618B6FF0EF618C693
:101AE3000470D20808768080CAF618F618F680C506
:101AF300080808EAC0E0EBC0E086F0E7A4FA18099A
:101B030086F0E7A42AFA180986F0E7A42AFA180946
:101B130086F0E7A42AFA1986F0E7A4FBE5F02AFA8F
:101B2300190886F0E7A42BFBE5F03AFA190886F0CA
:101B3300E7A42BFBE5F03AFA18180986F0E7A4C5E9
:101B4300F02BFBE43AFA1908E7C5F0C6A426F6E53C
:101B5300F03BFBE43AFA1886F0E7A4F6E5F0082632
:101B6300F6E43B08F6E43A08F6D0E0FBD0E0FA22CC
:101B7300E4CFC0E0E4CEC0E0E4CDC0E0E4CCC0E01C
:101B830075F020E626F608E633F608E633F608E6AF
:101B930033F6181818EC33FCED33FDEE33FEEF3358
:101BA300FFC3EC9709ED9709EE9709EF97191919F8
:101BB300400FFFEC97FC09ED97FD09EE97FE19190D
:101BC30006D5F0BFECF709EDF709EEF709EFF719C2
:101BD3001919D0E0FCD0E0FDD0E0FED0E0FF2218E0
:101BE3001818E4C396F608E496F608E496F608E4B3
:101BF30096F6226016080808C6C313C618C613C68D
:101C030018C613C618C613C6D5E0EA227009080819
:101C130008226016181818C6C333C608C633C60888
:101C2300C633C608C633C6D5E0EA22E627F6080956
:101C3300E637F60809E637F60809E637F622E0261E
:101C4300F608A3E036F608A3E036F608A3E036F676
:101C530022E026F008A3E036F008A3E036F008A35C
:101C6300E036F022C3E697F60809E697F60809E698
:101C730097F60809E697F622C3E096F008A3E096E4
:101C8300F008A3E096F008A3E096F022E657F608E2
:101C930009E657F60809E657F60809E657F622E07B
:101CA30056F608A3E056F608A3E056F608A3E05656
:101CB300F622E056F008A3E056F008A3E056F00839
:101CC300A3E056F022E0F608A3E0F608A3E0F60846
:101CD300A3E0F622E6F008A3E6F008A3E6F008A3E3
:101CE300E6F022E0FAA3E0FBA3E0FCA3E0FD22EA96
:101CF300F0A3EBF0A3ECF0A3EDF022E0F8A3E0F9FE
:101D0300A3E0FAA3E0FB22E8F0A3E9F0A3EAF0A33F
:101D1300EBF022CAC0E0E6F0A308DAFAD0E0FA2238
:101D2300CAC0E0E0A3C582CCC582C583CDC583F01C
:101D3300A3C582CCC582C583CDC583DAE6D0E0CA0C
:101D430022C3E498F8E499F9121D858026C3E49A26
:101D5300FAE49BFBE920E7E9121D85E498F8E4998E
:101D6300F922C3E498F8E499F9121D85E498F8E49C
:101D730099F9C3E49AFAE49BFB22EB20E7CFE9202D
:101D8300E7E0B90010BB0008E88AF084F8AAF02263
:101D9300E4FBC8FA22EB70227B10C833C8C933C9ED
:101DA300335007C39AC3DBF280069A50012ADBEA59
:101DB300C833F4C8C933F4C9FA2275F008E4C83348
:101DC300C8C933C933C99AC99B5004C92AC93BD569
:101DD300F0ECFBC833F4C8E4C9FA22600D08C6A2CC
:101DE300E713C618C613C6D5E0F322600C08C6C3B2
:101DF30013C618C613C6D5E0F422700422600D186A
:101E0300C6C333C608C633C6D5E0F4182225181056
:101E1300AF08F518400C15198008F518400215197C
:101E2300D2AF2200C0D0251810AF08F518500C050A
:101E3300198008F51850020519D2AFD0D022251801
:101E4300F58210AF08F518400C15198008F51840F5
:101E5300021519D2AF85198322C5822518C582C5FB
:101E630083351910AF07F5198582188007F5198591
:101E73008218D2AFC583222518F582E43519F5837C
:101E8300222518F8E43519F9222518FAE43519FB47
:101E9300222518FCE43519FD22C82518C8C93519AF
:101EA300C922E4732518C582C0E0E51934FFC58350
:101EB300C0E0E518C3958224F810AF08858319851F
:101EC30082188008858319858218D2AFCEF0A3E5E6
:101ED30020F0A37808E608F0A3DEFAEFF0A3E5818B
:101EE30024FAF8E608F0A3E608F0A3E608F0A3084E
:101EF30008E608F0A3E608F0A315811581D0E0FEFB
:101F0300D0E0F8158115811581E8C0E0EEC0E0222C
:101F13002518C582C0E0E51934FFC583C0E0E51884
:101F2300C3958224F910AF08858319858218800828
:101F3300858319858218D2AFCEF0A3E520F0A3786C
:101F430008E608F0A3DEFAEFF0A3E58124FBF8E648
:101F530008F0A3E608F0A30808E608F0A3E608F0F3
:101F6300A315811581D0E0FED0E0F815811581E835
:101F7300C0E0EEC0E022851983851882E0A3FEE06D
:101F8300A3F5207808E0A3F608DFFAE0A3FFE0A3B7
:101F9300C0E0E0A3C0E0E0A3C0E0E0A3C0E0E0A3B2
:101FA300C0E010AF088582188583198008858218E0
:101FB300858319D2AFD083D08202011F851983850F
:101FC3001882E0A3FEE0A3F5207808E0A3F608DF7B
:101FD300FAE0A3FFE0A3C0E0E0A3C0E0E0A3C0E019
:101FE300E0A3C0E010AF08858218858319800885B7
:101FF3008218858319D2AFD083D0822274048006DD
:10200300740280027401C0E0F404121E41D0E01295
:102013001D16227404800474028000CCC0E0EDC05D
:10202300E0E518C39CCCAD1950011D10AF068C1808
:102033008D1980068C188D19D2AF121D23D0E0FDA7
:10204300D0E0FC22D083D082E9C0E0E493A3C3862E
:10205300F0C5F095F0F908E493A386F0C5F095F088
:10206300700BE493A3C3994005E9048002A3E475CC
:10207300F002A42582F582E5F03583F583D0E0F9FB
:10208300E493A3C0E0E493C0E022D083D082ECC009
:10209300E0EDC0E0E493A3FCE493A3FDED4C600DFD
:1020A3001220D9EC24FFFCED34FFFD80EFE493A371
:1020B300FCE493A3FDED4C600D122118EC24FFFC0E
:1020C300ED34FFFD80EFD0E0FDD0E0FCE493A3C04E
:1020D300E0E493C0E022C0E0C3E493960874019364
:1020E3009618400FE493667008087401936618709D
:1020F300007019A3A3C3E49396087401939618A3DD
:10210300A3400DD0E0D0E0D0E00220C9A3A3A3A355
:10211300A3A3D0E022C0E0C0F088F0E49366700887
:102123000874019366187000A8F0A3A3700BD0F095
:10213300D0E0D0E0D0E00220C9A3A3D0F0D0E022C9
:1021440074F5121F13EAFEEBFFEE2434F8EF3400AB
:10215400F988088909EE2435F582EF3400F583E027
:10216400F8EE2437F582EF3400F583E0F50AEC85C8
:102174000AF0A4FCAAF0850AF0EDA42AFDE82CF8E4
:10218400E43DF97A257B00121D85EA8508828509DC
:1021940083F0F8740758F97401B900028004C3335A
:1021A400D9FCFAE8131313541FF8EE28F8EF34009F
:1021B400F9E8245DF582E93400F583E05A6008EE1D
:1021C4002434F582EF802CEE2434F582EF3400F5CC
:1021D40083E0C0E0EE2436F582EF3400F583E0F5C9
:1021E400F0D0E084A8F0EE28F8EF3400F9E82438C1
:1021F400F582E93400F583E0F97F04021FBF74F52A
:10220400121F13EAFEEBFFEE2434F582EF3400F5DF
:1022140083E0C0E0EE2435F582EF3400F583D0E0AE
:10222400F08E828F83A3A3A3A3A3A3A3C082C0839E
:102234008E828F83A3A3A3A3A3E0F8A3E0F9D083A2
:10224400D082E0C398F508A3E099F509EE247FF560
:1022540082EF3400F583E064017069EE2480F58236
:10226400EF3400F583E0F8A3E0F98E828F83A3A313
:10227400A3A3A3A3A3E0FCA3E0FD8E828F83A3A367
:10228400A3A3A3E0FAA3E0FBC3EA9CEB9D5010C315
:10229400EC98ED99402EC3EA98EB995027800EC331
:1022A400EA98EB994007C3EC98ED9940177CDC7DE4
:1022B40004EEFAEFFB120B5EEE247FF582EF34009E
:1022C400F583E4F0EE2434F8EF3400F9E8FCE9FD9A
:1022D400EE2435F582EF3400F583E0F8EE2437F58B
:1022E40082EF3400F583E0F50AE508850AF0A4F5E9
:1022F40008AAF0850AF0E509A42AF509E82508F8F2
:10230400E43509F97A257B00121D85EA8C828D83D8
:10231400F0F8740758F97401B900028004C333D982
:10232400FCFAE8131313541FF8EE28F8EF3400F9FD
:10233400E8245DF582E93400F583E05A6008EE2470
:1023440034F582EF802CEE2434F582EF3400F583EB
:10235400E0C0E0EE2436F582EF3400F583E0F5F0DA
:10236400D0E084A8F0EE28F8EF3400F9E82438F53A
:1023740082E93400F583E0F9122C590221FDC08270
:10238400C083851882851983E0F8A3E0F9C3EA9C29
:10239400EB9D5010C3EC98ED99401BC3EA98EB9960
:1023A4005014800EC3EA98EB994007C3EC98ED995A
:1023B4004004790180027900D083D08222EAC39C50
:1023C400FAEB9DFB2274EF121F139003A2E0640842
:1023D4006005E06407702A9061C8E060249003D02F
:1023E400E0F4601DE0F875F003A4C8AAF02AF974BB
:1023F400D228FE740339FF8E828F83A3A3A3E070D7
:10240400030224F9906060E0C0E0EE2468F582EFF6
:102414003400F583D0E0F0750C45750D05750800A2
:10242400750900E5D914F50AE5D95403F50E6017CA
:102434007403650E605CE50A6010EE2467F582EFB4
:102444003400F583E070030224DE900540E064016B
:10245400602AEE2482F582EF3400F583E06004788C
:102464000480027800850A08E508C398FA95E0FB21
:10247400120A328A088B09EA45097005120D508048
:1024840074EE2482F582EF3400F583E070048A0C44
:102494008B0DE50A6012850C82850D83F50BE5D959
:1024A400F0A3150BE50B70F6EE2482F582EF3400F1
:1024B400F583E0604474FC250AF50A780C122003C5
:1024C400AC0AA90EEEFAEFFB120BFA7402121E26E6
:1024D400E97026AA08AB09121206793D8E828F8311
:1024E400A3A3A3A3E0FA7B00120906EEFAEFFB1202
:1024F4000B76120C0C790080747403650E6056859B
:102504000A107511007810122003AC0CAD0DAA0846
:10251400AB09120BD67402121E26EE2468F582EF64
:102524003400F583E064807004747F8001E0F50C6E
:10253400780C122007E50EF50C780C122007A90A76
:10254400AC08AD099003D0E0FA7B001208CA74020B
:10255400121E2680139003A2E06408600BAC0CAD3D
:102564000DEEFAEFFB120C66120D5C79017F0A0284
:102574001FBF74F5121F1374FC121E10EAFEEBFF4A
:102584008908A2AFE433F509C2AF806AEE2463F888
:10259400EF3400F97A007B00A2AFE433F50AC2AF4E
:1025A40088828983E0FCA3E0FDEC4D603A8882894F
:1025B40083E0FAA3E0FB8A828B83E0FCA3E0FD883E
:1025C400828983ECF0A3EDF08A828B83E4F0A3F09C
:1025D40088828983E0FCA3E0FDEC4D700A8882893F
:1025E40083A3A3E4F0A3F0E50AA2E092AF121206DB
:1025F4009004E3E004F0EE2463F582EF3400F58305
:10260400E0F8A3E0F9E849603DEE2463F582EF3495
:1026140000F583E02402FAA3E03400FBEA2402F587
:102624000AEB3400F50B780A1220038A828B83E0CC
:10263400FCA3E0F9EEFAEFFB120B9A7402121E26C9
:10264400E970030225909004E3E060639004E4E001
:10265400F89004E3E0C398500C740265087050903D
:1026640004E5E0604A8E828F83A3A3A3A3E08518C8
:1026740082851983F0A3E4F09004E3E0F874021275
:102684001E7AE8F0A3E4F09004E3E0F89004E2E0BA
:1026940028F07402121E7AAC82AD838518828519E3
:1026A40083AA82AB8379011208D69004E3E4F0E5AF
:1026B40009A2E092AF7404121E260221FD0000005C
:1026C4008521878522C622C0E0C0D0E8C0E0E9C0E9
:1026D400E0EAC0E0EBC0E0ECC0E0EDC0E0EEC0E05A
:1026E400C008C009C00AC00BC082C083C0F0A2AF3A
:1026F400E433FEC2AF759B00906182E0A2E0501209
:10270400E591A2E0500C7591FE74016521700312ED
:1027140023C9E0A2E55051E591A2E5504B7591DF44
:102724009003A2E064076005E06408702374016507
:1027340021703579019003D0E0FA75F003A4CAA89A
:10274400F028FB74D22AFA74033BFB122576801816
:10275400E0640D70139003C4E004F064287002E494
:10276400F07A00E0F9120D62906182E0A2E6400383
:10277400022812E591A2E640030228127591BF9047
:1027840003A2E064057008120C90120C9C800312E2
:102794000C96752100120CF0E99003A3F079001255
:1027A4000CE4120AD47A017B009003A1E0F9120F21
:1027B4009C907803E064427055900544E014F070F6
:1027C4004DC2AF1227CA00782AD0E0F618D0E0F63E
:1027D400E59F540770057509FF800375097FC4C020
:1027E400E07829E6F50808E65509F509740B780838
:1027F400121DEED0E02508F8906270E0A2E740F8E0
:10280400E8C333906272F0906270E0D2E0F09061BD
:1028140081E0A2E35009E5E9A2E3500375E9F7A3D7
:10282400E0A2E75009E591A2E7500375917FEEA27B
:10283400E092AFD0F0D083D082D00BD00AD009D0B0
:1028440008D0E0FED0E0FDD0E0FCD0E0FBD0E0FA20
:10285400D0E0F9D0E0F8D0D0D0E032C0E0C0D0C0B1
:1028640082C083906183E0A2E05009E5BFA2E050FA
:102874000375BFFEE0A2E15009E5BFA2E150037574
:10288400BFFDE0A2E25009E5BFA2E2500375BFFB21
:10289400E0A2E35009E5BFA2E3500375BFF7E0A24D
:1028A400E45009E5BFA2E4500375BFEFE0A2E55090
:1028B40009E5BFA2E5500375BFDFE0A2E65009E5D4
:1028C400BFA2E6500375BFBFD083D0828088C0E02A
:1028D400C0D0E8C0E0E9C0E0EAC0E0EBC0E0ECC092
:1028E400E0EDC0E0C0F0E5A7A2E6500FE5A1A2E646
:1028F400500953A7BF75A1BF122937E5A7A2E55018
:102904000CE5A1A2E5500653A7DF75A1DFE5A7A258
:10291400E15009E5A1A2E1500375A1FDE5A7A2E2FA
:10292400500CE5A1A2E2500653A7FB75A1FBD0F021
:1029340002284874F8121F137521019003A2E06461
:10294400067015120C2A8A828B83A3A3A3A3A3A3C4
:10295400E0FAA3E0FB120C7EA2AFE433FED2AF9008
:1029640003A8E0640170187A207B009003A1E0F9C9
:102974001210147A207B009003A1E0F9120FA290A8
:102984006182E0D2E6F0900541E0602185C62280B4
:10299400169003A7E064017008E5C654F84405F5F1
:1029A400C653BEFC1226C47401652160E4EEA2E0A5
:1029B40092AF7F01021FBF008E238F24858228855A
:1029C4008327851882851983E0CEA3E0CF852882EA
:1029D400852783EBC9EAC8EDCBECCA75F010C3E8D0
:1029E40033C8E933C9EA33CAEB33CBC3EA9EF526CD
:1029F400EB9FF525B35004AB25AA26EC33CCED337D
:102A0400CDD5F0DAAE23AF242274ED121F138A0859
:102A14008B098C0A8D0B7413121E7A780C121CC845
:102A24007808790C1212E97510017511C875120035
:102A340075130050127808790C121C677810790805
:102A44001212E950168010780C7908121C6778105D
:102A5400790C1212E940047901800279007F0C029A
:102A64001FBF74ED121F138A088B098C0A8D0B7417
:102A740013121E7A780C121CC8780C79081212E909
:102A840040117808790C121C67AA08AB09AC0AAD8E
:102A94000B802275100075110075120075130178F2
:102AA40010790C121C6778107908121C2EAA10AB2E
:102AB40011AC12AD1380A68A828B837508FF750949
:102AC400FF750AFF750B007808121CB57F04021FFE
:102AD400BF74F5121F138C828D837808121CC88A68
:102AE400828B837808121C7BEA2404F8EB3400F907
:102AF4008C828D83A3A3A3A3E0FCA3E0FD88828939
:102B040083C3E09CF0A3E09DF088828983C3E094B2
:102B140020A3E0944E40268A828B837508FF7509B2
:102B2400FF750AFF750BFF7808121C548A828B8389
:102B3400A3A3A3A3E02420F0A3E0344EF0022ABB15
:102B440074F5121F13E9FE9004F7E0FAA3E0FBEE1C
:102B5400C333F8E433F9743128F582748139F58389
:102B6400E02AF508A3E03BF50978081220037A402F
:102B74007B427C0F7D001229BC7402121E268A0837
:102B84008B098C0A8D0B74107808121BF6AA08ABFB
:102B9400097F04021FBF74F1121F138A0C8B0D8C62
:102BA4000E8D0F740F121E7AE0FAA3E0FB7411125B
:102BB4001E7AE0F508A3E0F5097808122003EA2458
:102BC40001F508EB3400F509E4F50AF50B780C7906
:102BD40008121AF3750871750902780C7908121A2B
:102BE400F3AA0CAB0DAC0EAD0F1229BC7402121E6D
:102BF400268B09EA450960047A0180027A00EC2AEE
:102C0400FCED3400FD7413121E7AE0F8A3E0F9E839
:102C1400FEE9FFECF8EDF97A717B02121D85880854
:102C240089098E828F837808121CD7ECF8EDF97A23
:102C3400717B02121D858A088B0974057808121DA0
:102C4400FD8E828F83A3A3A3A3E508F0A3E509F077
:102C54007F08021FBFC082C083E9906000F0D08368
:102C6400D08222C2AF02000022C0E0C0D0E8C0E09F
:102C7400E9C0E0EAC0E0EBC0E0ECC0E0EDC0E0EEAB
:102C8400C0E0C082C083C0F0A2AFE433FED2AFC2C2
:102C9400C0E5D1A2E4500653D1EF1211BEEEA2E07A
:102CA40092AFD0F0D083D082D0E0FED0E0FDD0E06F
:102CB400FCD0E0FBD0E0FAD0E0F9D0E0F8D0D0D0FE
:102CC400E032C0E0C0D0E8C0E0E9C0E0E5A8D2AF9F
:102CD400C2C7A2E7A2E792AFD0E0F9D0E0F8D0D023
:102CE400D0E032C0E0C0D0E8C0E0E9C0E0C008C035
:102CF40009C082C083A2AFE433F9D2AF9009FAE0ED
:102D0400F8A3E0687008539AFBA374018025C2E914
:102D14009009FAE0F50874012508F0747A2508F59D
:102D240082E43409F583E0F5C19009FAE0C39480A4
:102D34004002E4F0E9A2E092AFD083D082D009D07F
:102D440008D0E0F9D0E0F8D0D0D0E032C0E0C0D074
:102D5400E8C0E0E9C0E0EAC0E0EBC0E0ECC0E0EDD0
:102D6400C0E0EEC0E0C082C083C0F0A2AFE433FE96
:102D7400D2AFC2C343FE8053F47FC297A2D850148B
:102D84007AB67B81120F5AEAFCEBFD7AB67B817925
:102D9400001211ACA2D950147AC37B81120F5AEAE3
:102DA400FCEBFD7AC37B8179001211ACEEA2E092B8
:102DB400AFD0F0D083D082D0E0FED0E0FDD0E0FCF4
:102DC400D0E0FBD0E0FAD0E0F9D0E0F8D0D0D0E009
:102DD40032C0E0C0D0E8C0E0E9C0E0EAC0E0EBC047
:102DE400E0ECC0E0EDC0E0EEC0E0C082C083C0F023
:102DF400A2AFE433FED2AFC2EBE58AE58AA2E25089
:102E04001A538DFBC2EB7A0F7B821211167C017D63
:102E1400007A087B0A121110438D04808F02011F6F
:102E2400FFFFFFFFFFFFFFFFC082C083E9900B8419
:102E3400F002305674F7121EA7E99002E1F07C19F3
:102E44007D037AFF7BFF1208289002E274FFF0A34F
:102E5400F0A3E4F0A3F079051207B69002E1E0F9DB
:102E64001206D87A407B081209E47F01021F7974A4
:102E7400F4121EA78A088B09EB548060309002E19B
:102E8400E0F9120F968A0A8B0BAE0AAF0BEE4F6075
:102E9400138E828F83E064B070031207C8EEFAEFDA
:102EA400FB120F8AAA08E5096480FB80047A007B80
:102EB4000002302574F2121EA774FC121E10EAFEE2
:102EC400EBFFEE4F60387402121E7AEEF0A3EF129D
:102ED400328AECF0A3ED12328AAA82AB831206D2B4
:102EE400E9F50870737412121E7A123E3EE50A4523
:102EF4000B60658E828F83122F66EE4F7005750806
:102F04000280557A067B00120FDE8A0C8B0DA80C0A
:102F1400A90DE8497005750813803D88828983E40A
:102F2400122F70A3A3EEF0A3EF1242D7E50AF0A389
:102F3400E50BF09002E7122FF89002E76017E0FC2F
:102F4400A3E08003EAFCEBFD8C828D83122FF870E2
:102F5400F38C828D83123D63A9087404121E260229
:102F640044D9A3A3A3A3E0FEA3E0FF22F0A3F08827
:102F74008289832274F2121EA7890AE975F017A4C4
:102F8400FEAFF09002E6E4F09002E4122FF8600A3B
:102F9400120FE49002E4E4F0A3F0EEFAEFFB120F58
:102FA400DE8A088B09EA4509602FEEFCEFFD790003
:102FB400120F789002E4E508F0A3E509F07B0080A5
:102FC40008122FE2E4F0A3F00BEBC3950A40F2E5FC
:102FD4000A9002E6F07900800279130244D9EB7575
:102FE400F017A4F8A9F09002E4E028FAA3E0398AE3
:102FF40082F58322123AF9EA4B2274F4121EA7795D
:1030040000EAA2E0501B7508E675098178081220D1
:10301400037C047D007A867B0B1207B07402121EB7
:10302400267F04021F79C082C0839002E712305DBC
:10303400601C88828983A3A3E06A7003A3E06B8881
:1030440082898370E8A3A3A3A3123AF580047A00CB
:103054007B00D083D08202011F1245ACE849227460
:10306400EE121EA774FC121E10EAFEEBFF851882F6
:10307400851983E4F0A3F0EE2402123D47EE240503
:10308400123278EE2404F50EEF12365DE024FE6071
:103094003924FC604624FE605224FE605E24FE70E7
:1030A4000302317D24FE70030231F524FE70030215
:1030B400320424FE700302321324FC700302322211
:1030C40024FE700302323102326E9003007417F052
:1030D400A3E412329212045002326E8518828519CA
:1030E40083AC82AD831207CE02323E8518828519E5
:1030F40083AC82AD831207D402323E850C08850D61
:10310400097402121E7AAC82AD8385088285098314
:10311400123AF51206F68A0C8B0DAC0CAD0DEC4D83
:103124006042E4F50CF50D780C122003750C007563
:103134000D03780C122003750C01750D03780C1225
:1031440020037408121E7A12201A7916123AEF120A
:1031540008107408121E26E9F50C700B123AEB12D3
:103164000468800F750C01850882850983123280FA
:10317400123D63850C080232417402121E7AAC823D
:10318400AD83850C82850D83123AF51206F68A10FA
:103194008B11AC10AD11EC4D6043850C82850D8311
:1031A400A3A312201A7510007511037810122003BE
:1031B40075100175110378101220037408121E7A19
:1031C40012201A7916123AEF1208107408121E26E9
:1031D400E9F509700B123AEB12046E800F750901C0
:1031E400850C82850D83123280123D638509088027
:1031F4004C851882851983AC82AD831207DA803A34
:10320400851882851983AC82AD831207E0802B85F3
:103214001882851983AC82AD831207E6801C851859
:1032240082851983AC82AD831207EC800D851882E8
:10323400851983AC82AD831207F2E9F508E50860CD
:10324400298E828F83A3E06414601F850E82850F0C
:1032540083E090030012328A1245A8900301123DC4
:1032640063E508A312329212044AEEFAEFFB120746
:1032740074023C4FF50CEF3400F50D221245AC8579
:10328400188285198322F085188285198322F07C9F
:10329400007D03850A82850B83123AF92274EE12AB
:1032A4001EA774FC121E108A0A8B0B8C0E8D0FEA5B
:1032B4002405F508EB3400F5097C157D0079007AC6
:1032C400007B03120F78E5082402F50CE50912329D
:1032D4007B85188285198385821085831178101265
:1032E4002003850882850983A3A3A3A31237A5120B
:1032F4002003E5082405F510E5093400F5117810DC
:10330400122003850C82850D83123AFF1206F07495
:1033140006121E268A108B11AE10AF11E50A240284
:10332400F50AE50B123D4AEE4F700302346780172D
:103334007402121E7A123AF588828983EAF0A3EBAA
:10334400F0900300E004F0900300E0C39405400310
:10335400023467E4F510F51178101220037510E9B2
:1033640075110278101220037510EA751102781095
:103374001220037406121E7A12201A7910EEFCEF42
:10338400FD123AEF1208107408121E26E9705E85C9
:103394000882850983A3A3A3A3A3A3A3E0F89002AF
:1033A400E9E06870481237A51220037CEA7D02E543
:1033B400082408FAE5093400FB120F727402121E85
:1033C40026E960298E828F83A3A3A3A3123AF590E2
:1033D4000300E0F51074027810121DFD740125102D
:1033E400F58274033511F583EAF0A3EBF07402124D
:1033F4001E7A8582108583117810122003740212BC
:103404001E7A12201A850C82850D831245BD120680
:10341400FC7404121E268A108B11AE10AF11900397
:1034240000E0F51075110074027810121DFD74008F
:103434002510F874033511F988828983A3122FF8B3
:10344400700302332BE82403F8E93400F9EE4F60EB
:10345400030233348882898374FFF0A3F09003005D
:10346400E004F0900300E0600A123AEB12045C7985
:1034740000800B850882850983123D5A790A023C33
:103484004F74EA121EA774FE121E108C128D13EADA
:103494002405F50CEB1245C7122F6A75080075094F
:1034A40000EA2402F510EB3400F511851882851921
:1034B4008385820A85830B780A122003850C828512
:1034C4000D83A3A3A3A3123667122003E50C2405DE
:1034D400F50AE50D123D4A780A122003850C82850F
:1034E4000D831245BB1206F07406121E268A0A8B3F
:1034F4000BEA450B7003023618EA2404F50EEB12AE
:10350400365D122F6A8A828B83A3A3A3E0F9851008
:1035140082851183123AF51206DEE9F50960030289
:103524003618E4F514F51578141220037514E975AA
:10353400150278141220037514EA75150278141212
:1035440020037406121E7A12201A7913AC0AAD0BEA
:10355400851082851183123AF51208107408121E20
:1035640026E9F50960030236189002E9E0F8E50857
:103574007009E02402900301F08017900301E0FC3D
:10358400E82402FAE43400FBEA6C7001EB60030205
:10359400361C850882AA8212379C941412379450E0
:1035A40073850E82850F83E0C0E074022A123654BC
:1035B400D0E0F00508850E82850F83A3E0C0E08586
:1035C400080A7402250A123654D0E0F00508900265
:1035D400E91236671220037CEA7D0285080A740228
:1035E400250AFA74033400FB120F607402121E26BB
:1035F4009002E9E02508F50874FF6E700374FF6F0C
:103604006012EE24010EEF3400FFE508C394145059
:10361400030234AFE50860131239E0851082851186
:1036240083123AF512046279008014E50970037577
:10363400090A851282851383EEF0A3EFF0A90974B9
:1036440002121E267F0E021F7985080C7402250CB7
:10365400F58274033400F583223400F50F850E825D
:10366400F583221242EA2274EE121EA774FE121E81
:10367400108C0E8D0FEA2405F50CEB12327B750BC2
:1036840000900300E4F0F50AEA2402F508EB3400A4
:10369400F5098049900300E0FA9002E9E0F8123756
:1036A4009C9417123794400D900300E0F87416C3ED
:1036B400989002E9F01237A51220037CEA7D027487
:1036C400012AFA74033400FB120F607402121E26DE
:1036D4009002E9E0F8900300E028F0050AE50C24E4
:1036E40016F582E50D123658E0F8E50AC398400352
:1036F40002377D900300E0C39416507DE50AC3337E
:10370400F8E433F9E50C28FEE50D39FF85188285C8
:103714001983AC82AD838E828F83123AF51206F63A
:103724008A108B11AC10AD11EC4D7005750B018036
:1037340043E4F510F51178101220037510E97511A2
:103744000278101220037510EA7511027810122005
:10375400037406121E7A12201A79168508828509C6
:1037640083123AF51208107408121E26E9F50B703C
:1037740003023698123D5680107C007D0385088232
:10378400850983123AF5120474A90B7402023C51A0
:10379400E99400C365D03322EA28F8E43400F9E858
:1037A40022E0F51075110078102274EA121EA77435
:1037B400FC121E108A0C8B0D8C128D13EA2405F555
:1037C4000AEB123D4A750800750900E50A2402F562
:1037D40010E50B3400F5117402121E7A85820E85F1
:1037E400830F780E122003850A82850B83A3A3A37B
:1037F400A3124296122003E50A2405F50EE50B34C4
:1038040000F50F780E122003851082851183123D76
:1038140050123AEF1206F07406121E268A0E8B0F0F
:10382400AE0EAF0FE50C2402F50EE50D3400F50FD6
:1038340080408882898374FFF0050812364D74FF36
:10384400F005089002E9E0F50C750D00780C1220E3
:10385400037CEA7D0285080C7402250CFA74033497
:1038640000FB120F607402121E269002E9E0250884
:10387400F508EE4F60718E828F83A3A3A3E0F985D0
:103884000E82850F83123AF51206DEE9F509EE245D
:1038940004123278E97044E4F514F5157814122012
:1038A400037514E975150278141220037514EA756A
:1038B400150278141220037408121E7A12201A7941
:1038C40011EEFCEFFD850E82850F83123AF5120886
:1038D400107408121E26E9F5096027850C82850DEF
:1038E400831239D6123D63E50870030239BC1239DC
:1038F400E0850E82850F83123AF512047A7900026C
:1039040039D1850882AA82EA9002E97009E0240488
:10391400900301F08022E0F8900301E0F514E8241C
:1039240004FCE43400FDEC65147001ED70C0123742
:103934009C941212379450B6850C82850D83E0C096
:10394400E074022A123654D0E0F00508850C828512
:103954000D83A3E0C0E012364DD0E01239F2858227
:103964000C85830D780C1220037404121E7A122025
:103974001A8510828511831245BD1206FC74041247
:103984001E268A0C8B0DAE0CAF0D85080C74022517
:103994000CF874033400F9EE4F70030238368518BE
:1039A40082851983E0888289831239F2A3E0C0E01A
:1039B40012364DD0E0023844E509700375090A85D2
:1039C4000A82850B831239D6123D63A90974040255
:1039D40036451245AC85128285138322900301E09B
:1039E400F5F0E50884900300F07C007D0322F005E7
:1039F400088518828519832274EC121EA774FE129E
:103A04001E108A088B098C0E8D0FEA2405FEEB34F8
:103A140000FF851882851983AC82AD838E828F83E3
:103A2400123AF51206F68A0A8B0BEE241812327833
:103A3400EA450B7003023AC6123C385032851882AC
:103A4400851983123AF51208048A108B11EA45117C
:103A5400606B7912AC0AAD0B850882850983123A32
:103A6400F5851082851183121EA5E9F50A7058E4C4
:103A7400F50AF50B780A1220038E828F83A3A3E044
:103A8400F50A780A122003EE2403123D47780A123D
:103A940020038E828F83123AFF1208167406121EB8
:103AA40026E9F50A7021850C82850D83E0701F8557
:103AB4000882850983123AF51204808011750A0E72
:103AC4008009750A018004E50A6003123D56850CDD
:103AD40082850D83E0600479008002A90A740212D1
:103AE4001E267F0C021F797C007D03850A82850BCC
:103AF40083123AF922E0FAA3E0FB22E0FCA3E0FD02
:103B0400850882850983123AF92274EE121EA7747D
:103B1400FE121E108A088B098C0C8D0DEA2405FEFA
:103B2400EB3400FF750E00851882851983AC82ADD5
:103B3400838E828F83123AF51206F68A0A8B0BEA79
:103B4400450B7003023C24123C385035851882859D
:103B54001983123AF51208048A0E8B0FEA450F6096
:103B64005E7912AC0AAD0B850882850983123AF599
:103B7400850E82850F83121EA5E9F50E6003023CB3
:103B840027850882850983123E3EAA0AFB1207F89C
:103B94008A108B11A810A911E849701E7AFF7BFFC7
:103BA4001207F88A108B11A810A911E849606C88D3
:103BB400828983E50AF0A3E50BF0750A0080077596
:103BC4000E0E805F050A9002E6E0FAE50AC39A50F9
:103BD4004AE50A75F017A4FAABF088828983A3A397
:103BE400E02AFAA3E03BFB8A828B83123D50EC4D22
:103BF40070D2750A17750B00780A122003EEFCEFD9
:103C0400FD120F607402121E26EEFCEFFD85088281
:103C1400850983123AF51204868014750E0980030F
:103C2400750E011245A4850C82850D83123D63A98E
:103C34000E02378FE5082402F508E5093400F5097A
:103C44008A828B83A3A3A3E0A2E5227404121E2616
:103C54007F0A021F7974EC121EA78C108D11EA24BE
:103C640005F50CEB12327B750F00EA2402F50AEB22
:103C7400123D4A850A82F583123AF51207F88A083A
:103C84008B09EA45097003023D3C750E008071857D
:103C94000C82850D83E06401704F8E828F83A3A311
:103CA40012201A8E828F83A3A3A3A3E0F5127513A7
:103CB400007812122003EE2405F512EF3400F513F8
:103CC4007812122003123AEF1208167406121E26F6
:103CD400E9F50F6014850C82850D83E4F01245A488
:103CE400851082851183123D637C177D007900EE77
:103CF400FAEFFB120F788E828F83E4F0A3F0050EA7
:103D04009002E6E0F8E50EC398501EE50E75F01734
:103D1400A4F8A9F0850882850983A3A31245D112CA
:103D24003D50EC4D6003023C938508828509837401
:103D3400FFF0A3F0E50F7006123AEF12048CA90FFE
:103D4400023AE6F50AEF3400F50B22A3E0FCA3E007
:103D5400FD228E828F831245AC850E82850F83E807
:103D6400F0A3E9F022C082C0839002E2E06A70030B
:103D7400A3E06B70067AE27B0280047A007B000287
:103D84003056C082C08378008C828D83E06A7003D1
:103D9400A3E06B7010E875F003A4F8A9F0EC28FA1E
:103DA400ED39FB8015088C828D83A3A3A3E06A7090
:103DB40003A3E06B60DF7A007B0002305674F612D6
:103DC4001EA71207C28A828B83E582458370067A16
:103DD400007B008007A3A3A3A3123AF50244557401
:103DE400F2121EA7E9FE740E121E7A123E3E7410E1
:103DF400121E7A1242B68C828D83E064027036A35E
:103E04001245B2F50CA3E0F9A80C740268700374AF
:103E140029697021750C02750D00780C1220037845
:103E240008122003780A122003EEF912083A7406E5
:103E3400121E26800279010244D9E0F50AA3E0F5B6
:103E44000B2274E8121EA774FB121E10E985188257
:103E5400851983F08A168B17ECFEEDFF751000743C
:103E64001D121E7A1245A8741D121E7A123D638E0D
:103E7400828F83A3A3A3E0A2E4502D741D121E7AA3
:103E8400123AF51208048A828B83E5824583700313
:103E9400024287790AEEFCEFFDAA16AB17121EA5A3
:103EA400E9F510600302428A741F121E7A1242B6A8
:103EB4007421121E7A123E3E7423121E7AE0F50E0D
:103EC400A3E0F50F8E828F83E06402600302423523
:103ED400A31245A8850882850983A3858212858358
:103EE40013EE240612327888828983E0FAA3E0F97B
:103EF400EA2400F514E439F515781412208D010034
:103F0400002801282A3F07000228EF3F03285C3FCE
:103F140000292641012951410229F2400329264161
:103F24000429D0413542E50E450F60030242308535
:103F34000C82850D831242ABFAE9FB8A828B83E003
:103F4400850A82850B831242E11220038A828B83C5
:103F5400A3E0FCA3E00241BAE50E450F6003024270
:103F640030850A82850B837401F01242BE85088273
:103F7400850983F07C007D008E828F83A3A3A3A395
:103F8400E02401FAA3E03400FB1206F6EA4B604198
:103F94008A828B83E02402F8850A82850B83E028D9
:103FA400F0EA2404F8EB3400F988828983E085126E
:103FB400828513831242F31242E11220038A828B18
:103FC40083123D4FE5082403FAE5093400FB02415E
:103FD400BF850A82850B83E02404F07C047D00798C
:103FE40000AA12AB13120F7802428AE50E450F6045
:103FF400030242301242BEFEA3E0FF850A82850B13
:10400400837404F0EE850882850983F0EF851282BB
:10401400851383F07403121E7AAC82AD83EEFAEF3B
:10402400FB1206F68A0C8B0DEA450D70030240D391
:104034008A828B83A3A3122F667401121E7A85824F
:104044000E85830F780E1220037405121E7A122037
:104054001A7CFF7DFF1206FC7404121E268B0FEAE5
:10406400450F7033850C82850D831242961220030E
:10407400850C82850D83A312201A7C027D007A357B
:104084007B821205287404121E26E9700A74011238
:104094001E7A74FFF0A3F08E828F83E0640270397D
:1040A400750C02750D00780C1220038E828F83121A
:1040B4003D4FE5082404FAE5093400FB120F60744F
:1040C40002121E26850A82850B83E024028009746D
:1040D40001121E7AEEF0A3EFF07401121E7A12425E
:1040E400A7F07401121E7AA312429F02422AE50E1F
:1040F400450F6003024230850C82850D83123D50CA
:10410400AA16AB1712082E850A82850B837402F057
:10411400EA850882850983F0851282851383EB0280
:10412400422DE50E450F60030242301242BEF8A351
:10413400E0F9850A82850B837402F0E8850882859C
:104144000983F0E985128285138302422D850C824E
:10415400850D83123AF5120F5AEAFC8C82A882C3A9
:10416400950EE4950F405FE8650E7002E50F70044C
:104174007C008022851882851983E0FAE50E2AFAEC
:10418400E50F3400FBC3EA98EB94005003E080058C
:10419400E50ECCC39CFCEC850A82850B83F08C0A6B
:1041A400750B00780A122003850C82850D83E025A7
:1041B4000EFCA3E0350FFDAA08AB09120F607402D0
:1041C400121E2602428A75100702428AE50E450F26
:1041D400705A850C82850D831245A8850A82850B49
:1041E400837407122F7212429F122F72A3E085125A
:1041F40082851383F0E82402FAE93400FB8A828B77
:104204008312429F1242CE1242A7A31242D71242F5
:10421400B0F0E82405F8E93400F988828983124271
:10422400B0A31242F3A3A3A3A3F0805A75100B808A
:1042340055741D121E7A123AF51207C28A828B83B4
:10424400E5824583603D1245A8880C890DE8450D3B
:104254006031780E122003780A12200378081220A5
:10426400037406121E7AE0F9EEFCEFFDAA16AB17F2
:10427400850C82850D83121EA57406121E26E9F58F
:1042840010800375100EA9107405121E267F1002EB
:104294001F79E0F50E750F00780E22E085088285FF
:1042A4000983221242FD221245ACE8221242FDA3E8
:1042B400A322E0F508A3E0F50922850C82850D838D
:1042C400E0F8A3E0F5838882E022A3A3F08A828B3E
:1042D40083A322F088828983A3A3A3A322F08A82E2
:1042E4008B831242EA22E0F50A750B00780A22F069
:1042F40088828983A31242FD22E08508828509838E
:10430400A3A32274EE121EA774FE121E108A0A8B37
:104314000BECFAEDFB7414121E7AE0F510A3E0F531
:10432400117416121E7AE0FE7418121E7AE0F50E4D
:10433400A3E0F50F851882851983AC82AD8312063C
:10434400F68A0C8B0DEA450D604985188285198320
:10435400123AF51207C28A828B83E5824583602F65
:10436400A3A31242B6E50845096024780E1220037F
:104374007810122003EEF9AC0CAD0DAA0AAB0B8534
:104384000882850983121EA57404121E26800679EC
:104394000E8002790102378F74F6121EA774FE1282
:1043A4001E10740C121E7A1242AB85188285198372
:1043B400F07401121E7AE9F0E4F508F509780812A0
:1043C400200375080278081220037404121E7A85EB
:1043D40082088583097808122003120816740612CD
:1043E4001E267402121E26806874F7121EA7EAFEA7
:1043F400EBFF89087C197D0312082EEA5402600B36
:10440400A908EEFAEFFB1206EA80027901022E6E89
:1044140074F6121EA774FF6A700374FF6B70168C17
:10442400828D8312445AE4F08C828D83A3A3A31259
:10443400445AA380181207FE8A088B09A808A90900
:10444400E849600D8882898374FF122F70A3A3E466
:10445400F07F02021F7974FFF0A3F08C828D83A396
:10446400A32274F6121EA71207FE8A828B83E582AA
:1044740045836006A3A3E0FA80027A007B0080D122
:1044840074F2121EA78A088B09ECFEEDFF740E125B
:104494001E7AE0F50A1207FE8A0C8B0DA80CA90DF2
:1044A400E8497026EEFCEFFD7AFF7BFF1207FE8AD7
:1044B4000C8B0DA80CA90DE849700479118016889D
:1044C400828983E508F0A3E509F088828983A3A3A0
:1044D400E50AF079007F06021F7974EE121EA7EA3E
:1044E400FEEBFF8C088D09890C7414121E7A124598
:1044F400A87416121E7A123AF5750D00E849600385
:1045040002459C7402650C60030245977412121EE6
:104514007A1245B2FCA3E0F9EC2400F50EE439F577
:104524000FEAF4F8EBF4F9EC58F8E50F59F9E84917
:10453400705CE5082406F8ED3400F9880A890B88D4
:1045440082F5831245BD12082E8A108B11E50E6583
:10455400107004E50F65116042780E122003850A7D
:1045640082850B831245BD1208347402121E26E99B
:10457400F50D7027780E122003850882850983A320
:10458400A31245BB1208467402121E26800D750D37
:10459400808008750D0D8003750D0BA90D023C5428
:1045A4008E828F831245AC22E0F8A3E0F9221245F3
:1045B400AC88828983E022A3A3E0FCA3E0FDEEFAA9
:1045C400EFFB223400F50D850C82F58322E028FEF2
:1045D400A3E039FF8E828F832274F2121EA7EAFEB3
:1045E400EBFF890B7401650B600E7402650B706A36
:1045F4007901120A02E97062EEFAEFFB1207F88AF7
:10460400088B09EA45096047750A00800B7C177D11
:10461400007900120F78050A9002E6E0F8E50AC373
:10462400985021E50A75F017A4F8A9F08508828549
:104634000983A3A3E028FAA3E039FB8A828B8312BF
:10464400305D70C985088285098374FFF0A3F07C0E
:10465400197D03EEFAEFFB1208280244D974F21212
:104664001EA78A088B09ECFEEDFF740E121E7A1247
:104674003E3E900B84E0F4603D7A097B00120F8487
:10468400EA4B60328A828B8374B1F0A3E41242D085
:10469400A31242CEA3E508F0A3E5091246BDEEF04D
:1046A400A3EF1246BDA3A3E50AF0A3E50BF0900B1C
:1046B40084E0F9120F900244D9F08A828B83A3A379
:1046C400A3A3A322C082C0839061907404F0A37456
:1046D40048F0A37402F09061807440F09061BC745F
:1046E40003F09061877419F0906265741BF0906216
:1046F40049E0C3941390619C400A7409F090606689
:1047040074018007740DF0906066E4F090619A740F
:1047140033F0A37455F09061A0743AF090053FE033
:1047240064017009C2919003A6746780059003A682
:104734007461F0902E2AE493906186F0902E24E424
:1047440093F46027E493540FF8906185E068601255
:10475400E5C654804449F5C6E59E547F644970F823
:10476400E8F053C680E59E547F70FA7905120D4433
:104774000248F6C082C083E5A8F853A87E90618100
:10478400E4F0A3F0A3F0C2BA539AFEC289759B0069
:10479400C2C275E90075910075BF0075A91175B99C
:1047A40005906181F0A374C0F0A3E4F0D2BA439AF7
:1047B4000174805842A80248F6C082C08374F8127B
:1047C4001E109003A4E0F8A3E0F9E849700302483E
:1047D400EB9003A4E054406023790885188285197E
:1047E40083AA82AB83120BB8851882851983AA82A7
:1047F400AB831208B29003A4E054BFF0E05480608D
:1048040010790C7A657B05120BB89003A4E0547FF1
:10481400F0E0A2E0503190619A7433F0A37455F043
:104824009061A0743AF090053FE064017009C29170
:104834009003A6746780059003A67461F01208B80B
:104844009003A4E054FEF0E05402603190619A7445
:104854003FF0A3745AF09061A0747FF090053FE09C
:1048640064017009D2919003A6747180059003A627
:10487400746AF01208B89003A4E054FDF0E0540404
:104884006013902E28E493906186F01208BE900382
:10489400A4E054FBF0E054086013902E29E49390B4
:1048A4006186F01208BE9003A4E054F7F0E05410BF
:1048B4006013902E2AE493906186F01208BE900350
:1048C400A4E054EFF0E05420600A1208BE9003A460
:1048D400E054DFF0A3E05401600D120AE01208C4B2
:1048E4009003A5E054FEF07408121E260248F6F068
:1048F400A3F0D083D08202011F74EC121EA774F4BB
:10490400121E10851882851983AC82AD837583824B
:104914007582137404121D23902E2893F4600302ED
:104924004A89907808E0C394025003024A697404E7
:10493400121E7AAC82AD837583817582D27408129B
:104944001D23851882851983858212858313740437
:10495400121E7AAC82AD83750EFF750FFF7FFF7E4A
:1049640000750C48750D78801574086E7003024943
:10497400FD74096E70030249FD740A6E607B850C38
:1049840082850D837808121CC88C828D83A909E561
:104994000AC9F8881074187808121BF6E51045083F
:1049A400F8C3E098A3E099850C82850D83780812FA
:1049B4001CC840188C828D8374187808121BF6E585
:1049C400104508F8E0C398F8A3E0801C7418780830
:1049D400121BF6E5104508FAE9FB8C828D83E0F89A
:1049E400A3E0F9EAC398F8EB99F9C3E8950EE995C1
:1049F4000F5006880E890FEEFF0EE50C2404F50C0B
:104A0400E50D3400F50DEEC39413500302496D74A3
:104A1400FF650E700474FF650F60238F08740278BD
:104A240008121DFD74482508F58274783509F5834C
:104A34007808121CC8851282851383E508F0EC24DB
:104A440002FCED3400FD851282851383A385821256
:104A5400858313740C121E7AE5826C7003E5836DF2
:104A6400600302495B750801750900780812200388
:104A74007402121E7AAC82AD837A8A7B0B121134D3
:104A84007402121E26740C121E267F0C021F79C09B
:104A940082C0839061AE7468F0A3746AF09062453A
:104AA40074FBF0A304F053F4FD43FE0290053F743D
:104AB40001F09061A0E0643A90619A70237433F03D
:104AC400A37455F09061A0743AF074016401700904
:104AD400C2919003A6746780289003A67461802114
:104AE400743FF0A3745AF09061A0747FF074016471
:104AF400017009D2919003A6747180059003A67485
:104B04006A0248F57F08021F79C082C0839004F1CD
:104B1400E06401700A9004F6E06004790C80027984
:104B2400000248F6C082C08375E1F19004F4E060AD
:104B34005B14600914605F14605714705E120AF20B
:104B44009004EAE0F97AEB7B04120CC67AD67BBEB9
:104B54007C897D8E120CFC7A557B557C557D001228
:104B64000CD29004F5E0F9120CDE7901120D3890A4
:104B740004E8E0F8A3E0C82416F582E83400F583DD
:104B8400740AF0A3740BF079000248F6120AF88054
:104B9400AF120AFE80AA120B0480A5791280EA746F
:104BA400F0121EA775D90D9004D5E0A2E0E43313EA
:104BB40013F89004EAE0C4333354C0484401F5D9EF
:104BC40078E8790488828983A3A3A3E0F5D988824D
:104BD4008983A3A882A983E864EE7003E96404705E
:104BE400E378D5790488828983A3E0F5D98882891A
:104BF40083A3A882A983E864DB7003E9640470E5F5
:104C040075E1959004D5E0F97AD67B04120CCC902A
:104C14000BA674A4F0A3740AF0A37400F0A3740C9C
:104C2400F0A37400F0A3740CF0A37400F0A3740C4C
:104C3400F0A374AAF0A3740AF0A37400F0A3740C94
:104C4400F0A374C2F0A3740AF0900BB47400F0A340
:104C5400740CF0A37400F0A3740CF0A37400F0A31C
:104C6400740CF0A37400F0A3740CF0A37400F0A30C
:104C7400740CF0A37400F0A3740CF09004F4E064DA
:104C8400019004E87012E0F8A3E0F5838882A3A3FE
:104C94007508007509088010E0F8A3E0F5838882A0
:104CA400A3A3750804750900750A00750B0078083C
:104CB400121C41750CFF750DFF750EFF750F007802
:104CC40008790C121C8F9004E8E0F8A3E0C8240EC5
:104CD400F582E83400F5837808121CD79004E8E0E4
:104CE400F8A3E0C82414F582E83400F5837413F0C3
:104CF4009003A27402F0024B0874F7121EA79004EA
:104D0400FAE02407F5D99004EAE0C4333354C0F53B
:104D1400D978E8790488828983A3A3A3E0F5D988A4
:104D2400828983A3A882A983E864EE7003E96404FA
:104D340070E39004FAE0601F78E87904FAE8241339
:104D4400F582E93400F583E0F5D988828983A3A844
:104D540082A9831AEA70E690051AE02407F5D9902F
:104D640004EAE0C4333354C04404F5D978E8790440
:104D740088828983A3A3A3E0F5D988828983A3A821
:104D840082A983E864EE7003E9640470E390051A71
:104D9400E0601F78E87904FAE82433F582E9340006
:104DA400F583E0F5D988828983A3A882A9831AEAC6
:104DB40070E675E195900BA674B0F0A3740AF0A3A5
:104DC4007400F0A3740CF0A37400F0A3740CF0A3AB
:104DD4007400F0A3740CF0A374AAF0A3740AF0A3F3
:104DE4007400F0A3740CF0A374C2F0A3740AF090DE
:104DF4000BB47400F0A3740CF0A37400F0A3740C4F
:104E0400F0A37400F0A3740CF0A37400F0A3740C6A
:104E1400F0A37400F0A3740CF0A37400F0A3740C5A
:104E2400F09004E8E0F8A3E0C8240EF582E834002A
:104E3400F58374FFF0A3F0A3F0A3F09004E8E0F886
:104E4400A3E0C82414F582E83400F5837412F090CA
:104E540003A27401F0FF021F7974F7121EA79004D5
:104E6400FAE02407F5D99004EAE0C4333354C0448B
:104E740002F5D978E8790488828983A3A3A3E0F5AD
:104E8400D988828983A3A882A983E864EE7003E9A0
:104E9400640470E39004FAE0601F78E87904FAE8A7
:104EA4002413F582E93400F583E0F5D988828983F7
:104EB400A3A882A9831AEA70E675E195900BA674FB
:104EC400BCF0A3740AF0A374BCF0A3740AF0A37436
:104ED400BCF0A3740AF0A374BCF0A3740AF0A37426
:104EE400BCF0A3740AF0A374BCF0A3740AF0A37416
:104EF400C2F0A3740AF0900BB47400F0A3740CF025
:104F0400A37400F0A3740CF0A37400F0A3740CF069
:104F1400A37400F0A3740CF0A37400F0A3740CF059
:104F2400A37400F0A3740CF09004E8E0F8A3E0C8C4
:104F3400240EF582E83400F58374FFF0A3F0A3F0A7
:104F4400A3F09004E8E0F8A3E0C82414F582E83460
:104F540000F5837414F09003A27404F002522474D4
:104F6400F7121EA79004FAE02407F5D99004EAE0AA
:104F7400C4333354C04406F5D978E8790488828967
:104F840083A3A3A3E0F5D988828983A3A882A983F4
:104F9400E864EE7003E9640470E39004FAE0601FCF
:104FA40078E87904FAE82413F582E93400F583E01B
:104FB400F5D988828983A3A882A9831AEA70E69026
:104FC400051AE02407F5D99004EAE0C4333354C049
:104FD4004404F5D978E8790488828983A3A3A3E0FB
:104FE400F5D988828983A3A882A983E864EE700333
:104FF400E9640470E390051AE0601F78E87904FA24
:10500400E82433F582E93400F583E0F5D988828910
:1050140083A3A882A9831AEA70E675E195900BA68A
:1050240074B6F0A3740AF0A37400F0A3740CF0A394
:105034007400F0A3740CF0A37400F0A3740CF0A338
:105044007400F0A3740CF0A37400F0A3740CF0A328
:1050540074C2F0A3740AF0900BB47400F0A3740C3F
:10506400F0A37400F0A3740CF0A37400F0A3740C08
:10507400F0A37400F0A3740CF0A37400F0A3740CF8
:10508400F0A37400F0A3740CF09004E8E0F8A3E03B
:10509400C8240EF582E83400F58374FFF0A3F0A36E
:1050A400F0A3F09004E8E0F8A3E0C82414F582E843
:1050B4003400F5837415F09003A27403F0025224B3
:1050C400C082C0839004E8E0F8A3E0C82406F58217
:1050D400E83400F583E40248F374F7121EA7900342
:1050E400D0E0F875F003A4C8AAF02AF974D228F81D
:1050F400740339F9E82405FAE93400FB8A828B83C6
:10510400E0FCA3E0FD88828983A3A3A3A3A3A3A3B4
:10511400A3A3ECF0A3EDF088828983A3A3A3A3A3A4
:10512400A3A3E024FFF8A3E034FFF98A828B83E889
:10513400F0A3E9F002522474F7121EA7EAFEEBFF73
:105144009061D0E0600302521875D90E75D90375C9
:10515400D904EE248BF582EF3400F583E58224082C
:10516400F8E5833400F9E0F5D9A3E865827003E932
:10517400658370F2EE2483F582EF3400F583E582D3
:105184002404F8E5833400F9E0F5D9A3E8658270D6
:1051940003E9658370F275E1957908EE248BFAEFE3
:1051A4003400FB120BAC7904EE2483FAEF3400FBD9
:1051B400120BAC7C00EEF8EFF9ECFAC3E49AFA9522
:1051C400E0FBEE2AFAEF3BFBEA248AF582EB34009B
:1051D400F583E0C0E0E824AAF582E93400F583D041
:1051E400E0F00C88828983A3A882A983ECC3940885
:1051F40040C7EE246FF582EF3400F583E0F8A3E0B6
:10520400F9EE2471F582EF3400F583E8F0A3E9F0B8
:105214007901800279008008F0EEA2E092AF790073
:105224007F01021F79C082C08375D90275D90375C5
:10523400D90575E195EA246FF582EB3400F583E036
:10524400F8A3E0F9EA2471F582EB3400F583E8F081
:10525400A3E9F079010248F674F6121EA7EAFEEB00
:10526400FF9005457406F075084575090578081220
:1052740020037C017903120BF47402121E2675D9E3
:105284000675D903758245758305E0F5D9A3E582D2
:10529400644A7004E583640570F075E1959003A297
:1052A400E06408701EEE246FF582EF3400F583E0AD
:1052B400F8A3E0F9EE2471F582EF3400F583E8F009
:1052C400A3E9F0790102552A74F6121EA7EAFEEB4F
:1052D400FF9061D0E070667801900545740BF09002
:1052E40003A2E0640770197508457509057808126A
:1052F40020037C017903120BF47402121E26780534
:10530400740128F5D975D903758245758305E8FAC2
:10531400E0F5D9A31AEA70F875E195EE246FF582E9
:10532400EF3400F583E0F8A3E0F9EE2471F582EFA1
:105334003400F583E8F0A3E9F079018002790002F2
:10534400552A74F7121EA7EAFEEBFF75D90375D927
:105354000375D90DEE24DDF582EF3400F583E0F515
:10536400D975E1957904120D02EE246FF582EF34BC
:1053740000F583E0F8A3E0F9EE2471F582EF340040
:10538400F583E8F0A3E9F0790102522474F6121EC1
:10539400A7EAFEEBFF9061D0E0F87480C398FAEEC0
:1053A4002482F582EF3400F583E0600478048002FF
:1053B4007800E8240BF8EAC39850030254557D0999
:1053C400900545EDF0EE24E2F8EF3400F97A467BDF
:1053D400057C0888828983E08A828B83F0888289AD
:1053E40083A3A882A9838A828B83A3AA82AB831C0A
:1053F400EC70E0EE2482F582EF3400F583E0601D6A
:1054040075084575090578081220037C097903EEAF
:10541400FAEFFB120BF47402121E267D0D74012D9B
:10542400F5D975D9037582457583058D08E0F5D9DD
:10543400A31508E50870F675E1957904120D02EEDE
:10544400241DF582EF3400F583E4F0A3F0790180A4
:1054540002790002552A74F6121EA7EAFEEBFF90A9
:1054640061D0E0F87480C398FAEE2482F582EF34B8
:1054740000F583E06004780480027800E82408F8EA
:10548400EAC39850030255287806900545740CF039
:105494009003BFE0900546F09003C0E0900547F00C
:1054A4009003C1E0900548F09003C2E0900549F0F4
:1054B4009003C3E090054AF0EE2482F582EF3400B5
:1054C400F583E0601B75084575090578081220030B
:1054D4007C067903EEFA120BF47402121E26780A83
:1054E400740128F5D975D903758245758305880833
:1054F400E0F5D9A31508E50870F675E1957904126D
:105504000D02EE246FF582EF3400F583E0F8A3E09A
:10551400F9EE2471F582EF3400F583E8F0A3E9F0A5
:105524007901800279007F02021F7974F6121EA7A6
:10553400EAFEEBFF9061D0E0F87480C398FAEE24A1
:1055440082F582EF3400F583E06004780480027809
:1055540000E82404F8EAC39850030256097802903C
:105564000545E8F0EE24F4F582EF3400F583E0908D
:105574000546F0EE2482F582EF3400F583E0601BEB
:1055840075084575090578081220037C027903EE35
:10559400FA120BF47402121E267806740128F5D947
:1055A40075D9037582457583058808E0F5D9A31577
:1055B40008E50870F675E195EE2473F582EF340082
:1055C400F583E4F0EE247FF582EF3400F583E4F014
:1055D400EE241DF582EF3400F583E4F0A3F07904A2
:1055E400120D02EE240DF582EF3400F583E0F8A3EA
:1055F400E0F9EE2471F582EF3400F583E8F0A3E9D5
:10560400F079018002790002552A74F6121EA790DF
:1056140061D0E0F87480C398FCEA2482F582EB340C
:1056240000F583E06004780480027800E82404F83C
:10563400ECC398405B79029005457407F0EA24F5C1
:10564400F582EB3400F583E0900546F0EA2482F518
:1056540082EB3400F583E060187508457509057818
:10566400081220037C0209120BF47402121E26791C
:1056740006740129F5D975D903758245758305E941
:10568400F8E0F5D9A318E870F875E195790180027E
:10569400790002552A74F5121EA7E9FCA2AFE4337F
:1056A400F50AC2AF7D0080010DEA246EF582EB3469
:1056B40000F583E0F8EDC398501A8D08EA2508F840
:1056C400EB3400F9E8246AF582E93400F583E06CF0
:1056D40070D68024EA246EF8EB3400F9E0FEEA2E5A
:1056E400FAEB3400FBEA246AF582EB3400F583EC30
:1056F400F088828983E004F0E50AA2E092AF7F0398
:10570400021F7974F6121EA7A2AFE433FDC2AFEAFA
:10571400246EF582EB3400F583E014F07C006036EF
:105724008C08EA2508F8EB3400F9E8246BF582E9E3
:105734003400F583E0C0E0E8246AF582E93400F53A
:1057440083D0E0F00CEA246EF582EB3400F583E0BC
:10575400F8ECC39840CAEA246DF582EB3400F58373
:1057640074FFF0EA2469F582EB3400F583E4F0ED8C
:10577400A2E092AF02552AC082C083E5A8F8C2AF66
:10578400EA246AF582EB3400F583E9F0EA2469F54A
:1057940082EB3400F583E4F0E8A2E7A2E792AF02DB
:1057A40048F674F3121EA7EAFEEBFFECFAEDFB8A4F
:1057B400828B83A3A3A3A3E0541FF0EE2436F582C7
:1057C400EF3400F583E4F0F50AEEFCEFFD8A828BFA
:1057D40083E0C0E0EC245DF582ED3400F583D0E095
:1057E400F0750B00E50A33333354F8F50C8A828BD9
:1057F40083E0F508750900E50B7808121DDEE5085D
:10580400A2E0502FEE2436F8EF3400F98882898321
:10581400E0F508EE2508F508EF3400F509E508245D
:1058240038F582E5093400F583E50CF08882898334
:10583400E004F0050B050CE50BC3940840AF050A22
:105844008A828B83A3AA82AB838C828D83A3AC824E
:10585400AD83E50AC3940550030257D17F05021FA7
:105864007974F7121EA79003CEE064017003025905
:10587400C37A009003D4E060030259C37401F0A317
:10588400E4F0A3F090043404F0900439F09003D7CA
:10589400E4F0A3F0A3F0A3F09003E104F090040774
:1058A400E4F09003EAF0A3F0A3F0A3F0A3F0A3F0D4
:1058B400A3F0900451F0900445F090043A7480F001
:1058C400A3E4F0900440F09004BCF0A3F0A3F0A390
:1058D400F0A3F0A3F0A3F0A3F09004C5F090045457
:1058E400F09004A4F0A3F0A3F0A3F0A3F0A3F0A31A
:1058F400F0A3F0A3F0A3F09004B0F09004B2F09001
:1059040004AEF09004C8F0A3F0A3F0A3F0A3F0A3B6
:10591400F0A3F0A3F078CE7903E8246EF582E9349D
:1059240000F58374FFF00A88828983A3A882A9837F
:10593400EAC3940440E37ACE7B0378DC790488825A
:105944008983E0C0E0EA2461F582EB3400F583D07A
:10595400E0F088828983A3A882A9838A828B83A3A7
:10596400AA82AB83E864E17003E9640470D07ACE60
:105974007B0378B5790388828983A3E0C0E0EA24B5
:10598400E6F582EB3400F583D0E0F088828983A3C6
:10599400A882A9838A828B83A3AA82AB83E864BD8D
:1059A4007003E9640370CF9003CEE004F0640170E7
:1059B400089003D6E09003D0F07AD27B0380047A77
:1059C400007B00025224C082C0839003D5E4F0908F
:1059D40003D4F09003CEF0A3F0A374FFF075E1F1CB
:1059E4000248F6C082C083780079009003D5E06055
:1059F4000478D2790388828983A3A3A3A3E0F9025C
:105A040048F674F6121EA7EAFEEBFFEE2463F58255
:105A1400EF3400F583E0F8A3E0F9E8497003025A93
:105A2400ABEE2463F8EF3400F97A007B00A2AFE414
:105A340033F508C2AF88828983E0FCA3E0FDEC4D16
:105A4400603A88828983E0FAA3E0FB8A828B83E050
:105A5400FCA3E0FD88828983ECF0A3EDF08A828BBD
:105A640083E4F0A3F088828983E0FCA3E0FDEC4D9D
:105A7400700A88828983A3A3E4F0A3F0E508A2E076
:105A840092AF1212069004E2E004F09004E3E00402
:105A9400F0EE2463F582EF3400F583E0F8A3E0F937
:105AA400E8496003025A258E828F83A3A3A3E06092
:105AB4000F8E828F83A3A3A3E4F09003CFE014F0AE
:105AC4009003CEE014F070069003D074FFF08E8241
:105AD4008F83A3A3E4F09004E1E0700D9003CFE082
:105AE400640170057900120CE4EEFAEFFB120C2449
:105AF40002552A74F7121EA7EAFEEBFF8E828F83EB
:105B0400A3A3A3A3E0FA7B00120906EEFAEFFB12AB
:105B14000B76120C0C025224C082C08378B5790330
:105B240088828983A3E4F088828983A3A882A983D5
