:020000040000FA
:0600000002010702285373
:03002B00022CBAEA
:03003B00022CDBB9
:03004300022C612B
:030053000228C6BA
:03005B00022D442F
:03007B00022DC98A
:100083000226BFE5C754F84401F5C77901220000F1
:100093000080FB120086B900030200F1E4792178A5
:1000A30008B800028004F709D8FCE479297802B87B
:1000B30000028004F709D8FCE490028178457909AD
:1000C3008002F0A3D8FCD9FA7AC57B0A900137786D
:1000D3001479048015E493A3AD82AE838A828B8363
:1000E300F0A3AA82AB838D828E83D8E9D9E7758288
:1000F3004E7583CA74031201197582917583007456
:100103000012011975D00075813F751881751902A8
:10011300759F00020096C09FF59FE473D09F22D085
:1001230083D082C09FE493C0E0740193C0E0740263
:1001330093F59F22FF0000B4000028002800283018
:1001430075A000A000A000A00000080008E001F0D6
:10015300001000100010001000100010005000509C
:1001630000500010001000D0070000000000000F36
:100173000001000500307507001000010081FF0039
:10018300000000FF480666064E06FF020202080250
:100193005000A0000000E803021E820100000E824E
:1001A3000222820100001C0B022882010000B3021C
:1001B3000222820100001D0B024682010000C902D7
:1001C3000222820100001E0B022C82010000CB02DE
:1001D3000222820100001F0B022E82080000CC02C3
:1001E300022282010000200B023082010000210B59
:1001F300FF0100FF20021E82010000B5810222825E
:10020300010000850B0232820000000000022682FA
:100213000300001903000C000C000C000C000C0080
:100223000C000C000C000C000C000C000C000C82E9
:100233000E9A0E7C0EFFFF110199010F1264040147
:10024300021E820100001782022282010000CD0BF0
:10025300021C82010000CE0B022682030000640709
:10026300023482010000CF0B0202020202020202E8
:1002730002010D0000001001021E82010000118224
:10028300022282010000F90B023C820100006A078E
:10029300022282010000FA0B0244820100009281D3
:1002A300022282010000FB0B02248201000068810C
:1002B300022282010000FC0B023682010000F6805C
:1002C300022282010000FD0B023A82010000088134
:1002D300022282010000FE0B024C82010000D28048
:1002E300022282010000FF0B024882010000E48029
:1002F300022282010000000C02428201000084817C
:10030300022282010000010C023E82010000020C65
:1003130001E803053F100A0A094865696D64616CC9
:100323006C7202010501024D54204261627920542E
:10033300616700000000000000000000C41100001D
:10034300CA111248756D69642E2044617461000AF4
:1003530048756D69642E20436F6E662E000A0A4845
:10036300756D69642E20506572696F6400021E8288
:100373000100001482022282010000D30C02508289
:100383000100000B0A0226820300000F0A024A82C0
:10039300010000D40C022282010000E00C02528210
:1003A300030000150A024A82010000E10C022282C6
:1003B300010000EE0C025482030000EF0C024A829B
:1003C300010000F00CFF000130750302010600007C
:1003D300000000000000000000000000000000001A
:1003E30000000000000000000000FFFF0600800C7A
:1003F300E8033031323334353637383941424344F8
:10040300454600286E756C6C20706F696E7465725A
:100413002900303132333435363738396162636419
:100423006566003F3F3F000000807F0000803F0083
:10043300000000F9021550B743BA510000204100F3
:10044300E7DB2E0000A040120122A5B70312012210
:10045300BCB703120122EDB70312012228B803121D
:10046300012252B8031201227CB80312012293B86D
:1004730003120122AAB803120122C1B803120122F6
:10048300EAB803120122FDB80312012213B90312C1
:10049300012226B9031201224DB9031201228275EA
:1004A30000120122867600120122BE76001201227A
:1004B300E17600120122EC76001201220F7700127E
:1004C30001221E7800120122F378001201226E79B4
:1004D30000120122F67900120122317A0012012260
:1004E300687A00120122F67A00120122CF7B0012F1
:1004F30001222F7C001201223A7C00120122B97CD6
:1005030000120122BC7C00120122BF7C00120122D6
:100513004E7D00120122517D00120122817D0012C5
:100523000122AB7D00120122997E001201224B7F32
:1005330000120122008003120122288003120122EB
:100543005680031201228D8003120122EB800312D5
:100553000122368103120122818103120122C1810A
:1005630003120122078203120122358203120122A0
:10057300F28203120122FC82031201220983031275
:1005830001223C83031201220884031201221484F2
:10059300031201222C840312012236840312012246
:1005A30031C4031201223FC40312012257C40312B0
:1005B30001226FC40312012240EB01120122ECEB72
:1005C3000112012267EC0112012288ED01120122BE
:1005D300C4ED011201226DEE0112012254EF01124A
:1005E3000122B8F0011201220FF10112012290F150
:1005F3000112012280F201120122CDF20112012225
:1006030053F30112012285F30112012299F501121C
:100613000122DBF501120122F9F5011201227CF618
:100623000112012250F70112012218F801120122CE
:100633003EED0212012211EE02120122BAEE021263
:1006430001220DEF02120122BDEF0212012249F035
:100653000212012235F10212012264F10212012277
:1006630077F202120122BFF20212012294F3021264
:100673000122D0F302120122ECF30212012276C806
:1006830003120122319A03120122479A0312012213
:100693006D9A03120122899B03120122939B031279
:1006A3000122C89C03120122C09D0312012294F966
:1006B30002120122C4FA02120122F7FA02120122E3
:1006C30041FB0212012208FD0212012219CC011280
:1006D300012283CC01120122E2CD01120122F2CDCB
:1006E300011201221FCE0112012276CE0112012234
:1006F3001FCF0112012226D001120122F0D00112D4
:10070300012250D20112012293D20112012238D3C5
:100713000112012285D301120122ABD3011201225E
:10072300B9D501120122BED501120122C3D701128C
:10073300012210D80112012283D801120122B6D856
:100743000112012258D90112012201DA01120122F8
:1007530039DA011201223CDA0112012284DA011290
:100763000122C4DA011201221BDB01120122ACB007
:1007730003120122C4B0031201220CB1031201229D
:1007830022B10312012269B1031201227DB20312C5
:1007930001220AB30312012255B303120122202EB0
:1007A300001201222C2E00120122672E00120122B8
:1007B300AC2E001201226C2F00120122F22F001224
:1007C30001221E30001201225730001201229532FD
:1007D300001201227934001201225F360012012235
:1007E300A23700120122F03900120122023B00124B
:1007F30001224D3C001201225D3D001201227A3D8F
:1008030000120122B53D00120122D73D0012012240
:100813003A3E00120122FB420012012290430012D1
:100823000122E143001201220844001201225A442A
:1008330000120122784400120122D2440012012244
:10084300D14500120122554600120122BD84031234
:100853000122C784031201220A850312012225857E
:1008630003120122B58503120122DD850312012241
:100873001A86031201225186031201227A86031279
:100883000122EF8603120122048703120122198732
:10089300031201224A87031201225E8703120122F7
:1008A300838703120122BD8703120122E987031202
:1008B30001226C8803120122B58803120122DF880A
:1008C300031201220A890312012212C20312012216
:1008D3005AC50212012288C502120122D6C602128B
:1008E3000122B6C702120122D5C70212012252C841
:1008F3000212012295C802120122EBC9021201223F
:10090300ACCA0212012233CD02120122D4CD02124B
:100913000122CACE02120122C7CF0212012221D123
:1009230002120122ACD10212012210BE03120122D3
:1009330079BE03120122CDBE03120122F4BE0312BB
:10094300012225BF031201223289031201229F894A
:1009530003120122E68903120122FE8A03120122F5
:10096300FA8B03120122DD8C031201225BDD0212DA
:1009730001229DDD021201226FDE0212012248DFF5
:100983000212012242E00212012224E10212012298
:100993008DE10212012243E202120122B7E20212A6
:1009A300012223E3021201224CE302120122C6E3D5
:1009B300021201225FE402120122C4E402120122A4
:1009C300D9E4021201221FE50212012238E50212C4
:1009D30001229DE502120122A0E502120122B3AD1C
:1009E30003120122DBAD0312012219AE031201220D
:1009F300D7AE031201223EAF031201225AAF0312F4
:100A0300012282AF03120122B2AF03120122C1AF4E
:100A1300031201223EB00312012264B00312012229
:100A230008DC01120122E6DD0112012218E00112A5
:100A3300012254E00112012281E0011201226BE143
:100A430001120122B6E10112012201E20112012287
:100A530013E20112012253E20112012288E2011280
:100A63000122D6E20112012205E30112012228E349
:100A73000112012275E301120122FAE3011201229C
:100A830014E60112012253E80112012294E8011233
:100A9300012236EA0112012277EA01120122EAEA6F
:100AA3000112012245B80212012243B902120122A6
:100AB300DCBF02120122FDC102120122C8C30212CD
:100AC300012230C502120122BC46001201226B47EB
:100AD30000120122B14700120122F1480012012243
:100AE300874A00120122014B001201221C4B001203
:100AF3000122974B00120122F14C00120122514EA8
:100B030000120122574F00120122B8500012012295
:100B1300D150001201222F51001201221D52001246
:100B23000122505200120122C052001201223A53F4
:100B3300001201228453001201224E54001201229A
:100B43002355001201220256001201228D56001273
:100B53000122FB56001201226F57001201229A57FD
:100B630000120122595800120122BE59001201221B
:100B7300DB5900120122FA5900120122EB5A00122A
:100B83000122105B001201223A5B00120122B55BC5
:100B9300001201220F5C00120122785D0012012273
:100BA300265E00120122675E0012012271AA021260
:100BB3000122BFAA02120122CBAA02120122A9AB6F
:100BC30002120122DAAB021201220BAC0212012241
:100BD3008BAC02120122C3AC0212012215AD021228
:100BE300012252AD021201226FAF0212012295B10E
:100BF3000212012280B3021201226AB502120122FB
:100C0300152E0012012268970112012298970112F2
:100C13000122719E01120122F69F01120122F3A506
:100C230001120122DBA60112012218A701120122DF
:100C33003BA7011201226CA70112012275A7011221
:100C430001227FA7011201226DA80112012263A9CB
:100C53000112012259820112012258860112012236
:100C63005E8601120122998D01120122B2920112B4
:100C7300012218A10312012212A20312012286A249
:100C830003120122C4A20312012238A30312012278
:100C9300B1A303120122BAA303120122C6A30312B2
:100CA3000122DBA30312012219A4031201222FA4A0
:100CB300031201220692031201221392031201224C
:100CC3002D92031201226C9203120122AA920312A3
:100CD30001220F93031201222493031201222F9363
:100CE300031201223C9303120122539303120122A4
:100CF3006193031201226C9303120122789303126E
:100D03000122879303120122929303120122B593C6
:100D1300031201225C94031201226C940312012238
:100D2300869403120122A39403120122BF94031297
:100D33000122E49403120122EF9403120122049589
:100D4300031201221895031201227995031201223D
:100D53007F95031201228595031201228B950312BD
:100D63000122A39503120122D69503120122718E4B
:100D730002120122F58E02120122A48F0212012215
:100D830003910212012224930212012210940212EF
:100D93000122459402120122679402120122169540
:100DA300021201220E970212012237970212012228
:100DB300C99702120122FB9702120122089802121C
:100DC30001225F9802120122859802120122F29AEF
:100DD30002120122F59B021201224D9C02120122F2
:100DE3000080021201220A8102120122F181021201
:100DF3000122FB81021201221D8202120122298299
:100E030002120122C28302120122F1830212012281
:100E13000D8502120122668502120122CC8602127E
:100E23000122AB8702120122078802120122748871
:100E330002120122AF8802120122EE88021201225D
:100E4300A78B02120122C18B021201224D8C0212C6
:100E530001225B8C02120122B48C02120122C28C89
:100E630002120122358D02120122998D02120122F2
:100E7300E38D021201222DD2021201224FD202125D
:100E8300012275D4021201228AD702120122A2D8AA
:100E93000212012255D90212012237DA021201226B
:100EA30004BB0312012229BB031201229BBB0312C1
:100EB3000122C4E502120122CDE502120122D6E588
:100EC30002120122ADE6021201225EE802120122A1
:100ED30094E802120122CEE80212012204E902126E
:100EE30001223EE90212012272E9021201229EE965
:100EF30002120122E7E90212012221EA021201226F
:100F03006AEA02120122C2EA02120122F7EA02127B
:100F1300012252EB021201228CEB02120122DDEBC1
:100F23000212012213EC021201224DEC02120122E1
:100F33007BEC021201229EEC021201222FC7031244
:100F430001225BC703120122B6C703120122C0C7E5
:100F530003120122D0C70312012231FA0112012226
:100F63003BFA011201227DFA01120122C8FA011291
:100F730001221FFB0112012279FB011201229CFBBA
:100F830001120122A6FB01120122F7FB0112012229
:100F930025FC011201220FFD0112012236FE01126E
:100FA300012276FE01120122BCFE01120122CEFEB5
:100FB30001120122EDFE01120122F6FE01120122AD
:100FC300ACFF01120122BBFE02120122E7C9031288
:100FD30001225FA40312012295A4031201220DA68C
:100FE3000312012256A7031201227DC90312012213
:100FF30093C9031201229DC9031201229F8D03127B
:101003000122B48D031201229C8E03120122D08E81
:10101300031201221D8F031201227B8F031201226F
:10102300E78F031201225FB90312012271B9031280
:1010330001229AB903120122B2B9031201229ABA08
:1010430003120122B8AA03120122F3AA03120122F6
:1010530010AB03120122CDAB031201225DAC0312CC
:101063000122D4AC0312012290A703120122B5A7D7
:1010730003120122DFA703120122A1CA03120122D4
:10108300975E00120122236100120122E562001221
:1010930001224764001201220666001201222F6614
:1010A30000120122DD6900120122356B00120122B8
:1010B300756B00120122386E00120122196F0012A3
:1010C30001224F70001201225F7000120122C573CA
:1010D3000012012208C50312012219C503120122BD
:1010E300BBC503120122F97F001201227CC6031241
:1010F3000122F1C6031201224DCB031201226BBF61
:101103000312012276BF0312012288BF03120122B8
:10111300E7BF03120122F7BF0312012215C0031216
:10112300012243C003120122B6C0031201222BC3C2
:1011330003120122B2C30312012218C403120122B3
:10114300C0C003120122E4C00312012287C10312AB
:101153000122E2C703120122C6C50312012211C6EE
:10116300031201225CC603120122C8B50312012235
:1011730009B60312012269B603120122CDB6031286
:1011830001226FB703120122539603120122EE9636
:10119300031201227E9703120122FB9703120122FD
:1011A3008A98031201222E99031201228E990312A7
:1011B30001222E9A0312012261F402120122C8F6BF
:1011C30002120122A7F8021201223EF902120122A1
:1011D300CA9D031201220F9E031201223D9E031298
:1011E30001227E9E03120122699F03120122DFA0C6
:1011F30003120122A9BC03120122FEBC0312012225
:101203008BBD031201227FB303120122A9B3031280
:1012130001227BB40312012252B5031201229B9CCB
:101223000212012263A00212012203A1021201226F
:101233001DA40212012291A702120122A8A70212E1
:10124300012241A9021201228BA902120122DEBB53
:10125300011201229AC00112012225C201120122A8
:1012630075C201120122F3C201120122DBC601126F
:101273000122E9C701120122E8CA031201227BAB52
:10128300011201228BB00112012221CB0312012290
:10129300D6FF01120122FAC80312012224C903E076
:1012A30066701008A3E066700A08A3E0667004087D
:1012B300A3E06622C008C3E096F50808A3E09642BF
:1012C3000808A3E096420808A3E0964208A2D26564
:1012D300D033E5087001D3D00822C3E7960809E7A5
:1012E300960809E7960809E79622C3E09608A3E063
:1012F3009608A3E09608A3E09622C008C3E096F5FB
:101303000808A3E096420808A3E096420808A3E071
:101313009645087001D3D00822080808E630E71183
:10132300121BD6121334080808C64480C6181818AE
:1013330022181818E9799EC608CAC608CBC608CC75
:10134300C6C370207996CACBCC7019798ECBCC707A
:10135300137986CC700EF9802ACA33CACB33CBCC2F
:1013630033CC331930E7F2CCCBCA3350147004EAD0
:1013730030E00DE4CA3ACACB3BCBCC3CCC5002099B
:10138300C3E913C6CC182313C6CB18C6CA18C6F9AB
:10139300221213D420F01430E72B74FFFCFBFA74F1
:1013A3007F8022E4FCFBFA7480801AB48008BC00BE
:1013B300F2BB00EF800F50EBF9E4C39AFAE49BFB16
:1013C300E49CFCE499C6CC18C6CB18C6CA18C6F967
:1013D30022E4C9C608CAC608CBC6D3330308CCC6A1
:1013E3003392F0C3947F402E94184019C9B907046F
:1013F300CACBCC225025C309CA33CACB33CBCC3397
:10140300CC33D9F422F4600DC9CCC313CB13CBCAAC
:1014130013CAD9F6CC22E4FCFBFA2214FCFBFA2211
:10142300E62618461846184622E72719471947198A
:101433004722181818E60846087009E626087005BA
:10144300E633F4220822191919E70947097009E755
:1014530027097005E733F4220922E6084608C31377
:101463004608336002E633F422E7094709C313470A
:1014730009336002E733F42212145D602512146C01
:101483006020121423700302142C080808E7667006
:10149300101819E766700A1819E76670041819E737
:1014A3006622F42212145D601C12146C601712146D
:1014B30023700712142C7001D322C0D012142C7085
:1014C30006D0D0B322C32233D0D0501430E0F6C3B9
:1014D300E7960809E7960809E7960809E796B3220D
:1014E30020E0D5E6970809E6970809E6970809E694
:1014F30097B32212145D601B12146C60161214232E
:10150300700712142C600CB322C0D012142C700577
:10151300D0D022C32233D0D0501330E0EBC3E796B0
:101523000809E7960809E7960809E7962220E0E408
:10153300E6970809E6970809E6970809E69722005F
:1015430012145D604F12146C6012E7548066F61239
:101553001435701112142C703B090909F4F618F6AE
:1015630018F618F6221214497015121423080808E5
:1015730060EAE6447FF618768018E4F618F622123D
:101583001423601612142C7012E4F608F608F608F9
:10159300E65480F609090918181822EAC0E0EBC0DE
:1015A300E0ECC0E0EDC0E0E687F0A4FBACF008E6B9
:1015B30087F0A42CFCE435F0FA1809E687F0A42C94
:1015C3004B60027401CA35F0FCE433FB09E687F093
:1015D300D2F7A42CCB35F0FC1908E687F0A42BCC6A
:1015E30035F0FBE433FD0819E687F0D2E7A42C4A73
:1015F300CB35F0CD3400FC09E687F0D2E7A42DCC3F
:1016030035F0FDE433FA0918E687F0D2F7A42CCDC0
:1016130035F0CA3400FC08E687F0D2E7D2F7A42AF3
:10162300CC35F07A7E20E70B0ACB33CBCD33CDCC50
:1016330033CC33CB3350147004ED30E00ED2F1E4ED
:10164300CD3DCDCC3CCC3B5005DA05C2F1EB547F0C
:10165300C63308E63392F0FBE73309E733C39A5006
:101663002D2B70190C0D4C4D70151806E608C3335D
:10167300700D20F10AA2F013F6E418800B4024E465
:10168300F630F002768018F618F618F68024D33B6D
:1016930014501074FFA2F013F6187680E418F618AD
:1016A300F6800FA2F013F618E63303F618ECF618DB
:1016B300EDF6D0E0FDD0E0FCD0E0FBD0E0FA221262
:1016C300146C604612145D603DE9687008F618F604
:1016D30018F618F622748067F71216F609090974CA
:1016E3008067F72212145D601D12146C70051919BE
:1016F30019801A121435701F121449C37003E66758
:101703003319191940071818182208080874FFF626
:1017130018F618F618F622121449601712142C70D2
:101723002192F01214237019501720F0140808089E
:10173300090909E7F61819E7F61819E7F61819E77A
:10174300F62212142360E6E869701F0808E6248075
:10175300F608E436F618547FB47F0CE6548060072D
:10176300F6E418F618F622181822E9C6CC08C6CDF6
:1017730008C6CE08C6CFC0E0E8C0E0EAC0E0EBC0D0
:10178300E009E9F809E7FA09E7FBE6F918E6F8C31F
:10179300EC98ED99EE9AEBC2E7F5F0EFC2E795F01E
:1017A300500E600CEBCFFBEACEFAE9CDF9E8CCF8AA
:1017B300EAA2E7D2E7FAEB33FB13F5F0EEA2E7D2A6
:1017C300E7FEEF33FFC5F013A2E730E601B313C51D
:1017D300F0C3C0E0C0F07F00C39BFB605E94186061
:1017E3000F401D14601AD0E023F9D0E0F80218C8A6
:1017F3008AF0E9486003D2F0E4AFF0FAF9F8803BED
:10180300EB30E40D89F0EA6003D2F0E4AFF0F9CAFB
:10181300F8EB30E30D88F0EF6002D2F0AFF0E4CAEA
:10182300C9F8EB54076014FBC3EA13FAE913F9E8A8
:1018330013F8EF135002D2E0FFDBEDD0E0C0E0304D
:10184300E739C3E49FFFF5F0EC98FC42F0ED99FD16
:1018530042F0EE9AFE42F0D0E0F9D0E0F8E5F06015
:101863007AE923F9EE20E742D8028067C3EF33FF1A
:10187300EC33FCED33FDEE33FE80EAEC28FCED396E
:10188300FDEE3AFED0E023F9D0E0F84002801BC31E
:10189300EE13FEED13FDEC13FCEF135002D2E0FF49
:1018A30008B800067F7F74FF802EEF3350178CF04B
:1018B30020F00260100CBC000C0DBD00080EBE0031
:1018C3000408E860DFE933E813FFEE2313FE4F4D0E
:1018D3004C8008E95480FFE4FEFDFCEE33EF33F463
:1018E3007004FCFD7E80D0E0FBD0E0FAD0E0F8D0BD
:1018F300E0CFC618CEC618CDC618CCC6F92212142E
:101903005D70041818182212146C700D74FFF61809
:1019130019F61819F61819F622E7548066F6121408
:1019230023700F12142C70F014F608F608F608F65C
:1019330080D112142C700CF608F608768008E64461
:101943007F80EC12144C700C12143860BFE6548084
:10195300F6E480BB121438700519191980A5E869DB
:10196300700C763F18768018F618F6E8F922E6CD63
:10197300C0E018ECC0E0E633CD33CDD313F6E7195E
:10198300FCE7191933CC33C3947F400ECD9D50240B
:1019930008E65480F6E418F6800FF4043D1450145E
:1019A30008E6447FF6187680E418F618F6D0E0FCD3
:1019B300D0E0FD22CCD313CCFD18E4C6CBC0E01895
:1019C300E4C6CAC0E00808ED08C633E613F618E417
:1019D30033C675F003C3CA97CA09CB97CB199C408A
:1019E300047D08802EBD0003021AAA16B6FF050661
:1019F30006081618C3CA33CACB33CB33CA27CA095E
:101A0300CB37CB193CC37D08803E187D0820E75CAB
:101A1300C633C6CA33CACB33CB33DDF1D5F0EB3093
:101A2300E77BCA97CA09CB974ACB199C406F4B7087
:101A330025E620E0218066187D08C3CA97CA09CB32
:101A430097CB199CD3C633C6CA33CACB33CB3350D7
:101A5300C9DDE7D5F0E1D3E4C636C608C636C60805
:101A6300C636C608C636C61818188031C3CA97CA00
:101A730009CB97CB199CB34097C633C6CA33CACB9D
:101A830033CB33DD34D5F02EC6A2E0C640C8CA2717
:101A9300CA09CB37194A70BECB3CB480B90808E6F3
:101AA3003308E633601F181818D0E0FAD0E0FBD0F3
:101AB300E0FCD0E0FD22187D08CA27CA09CB37CB4A
:101AC300193CD3808013F618E4B67F11F618B6FFDD
:101AD3000EF618C60470D20808768080CAF618F687
:101AE30018F680C5080808EAC0E0EBC0E086F0E716
:101AF300A4FA180986F0E7A42AFA180986F0E7A4DD
:101B03002AFA180986F0E7A42AFA1986F0E7A4FB53
:101B1300E5F02AFA190886F0E7A42BFBE5F03AFA78
:101B2300190886F0E7A42BFBE5F03AFA18180986A2
:101B3300F0E7A4C5F02BFBE43AFA1908E7C5F0C6B1
:101B4300A426F6E5F03BFBE43AFA1886F0E7A4F6A0
:101B5300E5F00826F6E43B08F6E43A08F6D0E0FBA5
:101B6300D0E0FA22E4CFC0E0E4CEC0E0E4CDC0E0B0
:101B7300E4CCC0E075F020E626F608E633F608E686
:101B830033F608E633F6181818EC33FCED33FDEEA4
:101B930033FEEF33FFC3EC9709ED9709EE9709EF97
:101BA30097191919400FFFEC97FC09ED97FD09EE02
:101BB30097FE191906D5F0BFECF709EDF709EEF713
:101BC30009EFF7191919D0E0FCD0E0FDD0E0FED001
:101BD300E0FF22181818E4C396F608E496F608E422
:101BE30096F608E496F6226016080808C6C313C6DC
:101BF30018C613C618C613C618C613C6D5E0EA22FC
:101C03007009080808226016181818C6C333C608D6
:101C1300C633C608C633C608C633C6D5E0EA22E6CD
:101C230027F60809E637F60809E637F60809E6371E
:101C3300F622E026F608A3E036F608A3E036F60817
:101C4300A3E036F622E026F008A3E036F008A3E08E
:101C530036F008A3E036F022C3E697F60809E697C4
:101C6300F60809E697F60809E697F622C3E096F028
:101C730008A3E096F008A3E096F008A3E096F0220C
:101C8300E657F60809E657F60809E657F60809E69F
:101C930057F622E056F608A3E056F608A3E056F6F8
:101CA30008A3E056F622E056F008A3E056F008A396
:101CB300E056F008A3E056F022E0F608A3E0F608A9
:101CC300A3E0F608A3E0F622E6F008A3E6F008A3F3
:101CD300E6F008A3E6F022E0FAA3E0FBA3E0FCA30E
:101CE300E0FD22EAF0A3EBF0A3ECF0A3EDF022E099
:101CF300F8A3E0F9A3E0FAA3E0FB22E8F0A3E9F0FC
:101D0300A3EAF0A3EBF022CAC0E0E6F0A308DAFAF4
:101D1300D0E0FA22CAC0E0E0A3C582CCC582C58365
:101D2300CDC583F0A3C582CCC582C583CDC583DA77
:101D3300E6D0E0CA22C3E498F8E499F9121D798049
:101D430026C3E49AFAE49BFBE920E7E9121D79E450
:101D530098F8E499F922C3E498F8E499F9121D7903
:101D6300E498F8E499F9C3E49AFAE49BFB22EB20A4
:101D7300E7CFE920E7E0B90010BB0008E88AF08468
:101D8300F8AAF022E4FBC8FA22EB70227B10C833D6
:101D9300C8C933C9335007C39AC3DBF280069A50CC
:101DA300012ADBEAC833F4C8C933F4C9FA2275F04F
:101DB30008E4C833C8C933C933C99AC99B5004C995
:101DC3002AC93BD5F0ECFBC833F4C8E4C9FA226056
:101DD3000D08C6A2E713C618C613C6D5E0F32260E2
:101DE3000C08C6C313C618C613C6D5E0F422700484
:101DF30022600D18C6C333C608C633C6D5E0F4182F
:101E030022251810AF08F518400C15198008F5188D
:101E130040021519D2AF2200C0D0251810AF08F523
:101E230018500C05198008F51850020519D2AFD0C7
:101E3300D0222518F58210AF08F518400C1519802B
:101E430008F51840021519D2AF85198322C58225DA
:101E530018C582C583351910AF07F5198582188017
:101E630007F519858218D2AFC583222518F582E4B8
:101E73003519F583222518F8E43519F9222518FABE
:101E8300E43519FB222518FCE43519FD22C8251871
:101E9300C8C93519C922E4732518C582C0E0E519FC
:101EA30034FFC583C0E0E518C3958224F810AF085A
:101EB3008583198582188008858319858218D2AF96
:101EC300CEF0A3E520F0A37808E608F0A3DEFAEF4E
:101ED300F0A3E58124FAF8E608F0A3E608F0A3E608
:101EE30008F0A30808E608F0A3E608F0A315811597
:101EF30081D0E0FED0E0F8158115811581E8C0E0BE
:101F0300EEC0E0222518C582C0E0E51934FFC58381
:101F1300C0E0E518C3958224F910AF0885831985BD
:101F230082188008858319858218D2AFCEF0A3E585
:101F330020F0A37808E608F0A3DEFAEFF0A3E5812A
:101F430024FBF8E608F0A3E608F0A30808E608F087
:101F5300A3E608F0A315811581D0E0FED0E0F815C3
:101F6300811581E8C0E0EEC0E022851983851882DF
:101F7300E0A3FEE0A3F5207808E0A3F608DFFAE08B
:101F8300A3FFE0A3C0E0E0A3C0E0E0A3C0E0E0A3C0
:101F9300C0E0E0A3C0E010AF0885821885831980F4
:101FA30008858218858319D2AFD083D08202011F9E
:101FB300851983851882E0A3FEE0A3F5207808E065
:101FC300A3F608DFFAE0A3FFE0A3C0E0E0A3C0E0CC
:101FD300E0A3C0E0E0A3C0E010AF088582188583CA
:101FE300198008858218858319D2AFD083D08222C5
:101FF30074048006740280027401C0E0F404121EAB
:1020030035D0E0121D0A227404800474028000CCCF
:10201300C0E0EDC0E0E518C39CCCAD1950011D1024
:10202300AF068C188D1980068C188D19D2AF121D2E
:1020330017D0E0FDD0E0FC22D083D082E9C0E0E4F9
:1020430093A3C386F0C5F095F0F908E493A386F053
:10205300C5F095F0700BE493A3C3994005E90480A0
:1020630002A3E475F002A42582F582E5F03583F539
:1020730083D0E0F9E493A3C0E0E493C0E022D083EB
:10208300D082ECC0E0EDC0E0E493A3FCE493A3FDB5
:10209300ED4C600D1220CDEC24FFFCED34FFFD80F0
:1020A300EFE493A3FCE493A3FDED4C600D12210C2C
:1020B300EC24FFFCED34FFFD80EFD0E0FDD0E0FC2D
:1020C300E493A3C0E0E493C0E022C0E0C3E49396AA
:1020D300087401939618400FE4936670080874011E
:1020E30093661870007019A3A3C3E4939608740150
:1020F300939618A3A3400DD0E0D0E0D0E00220BD1A
:10210300A3A3A3A3A3A3D0E022C0E0C0F088F0E47C
:10211300936670080874019366187000A8F0A3A36F
:10212300700BD0F0D0E0D0E0D0E00220BDA3A3D06C
:04213300F0D0E022E6
:1021380074F5121F07EAFEEBFFEE2434F8EF3400C3
:10214800F988088909EE2435F582EF3400F583E033
:10215800F8EE2437F582EF3400F583E0F50AEC85D4
:102168000AF0A4FCAAF0850AF0EDA42AFDE82CF8F0
:10217800E43DF97A257B00121D79EA8508828509F4
:1021880083F0F8740758F97401B900028004C33366
:10219800D9FCFAE8131313541FF8EE28F8EF3400AB
:1021A800F9E8245DF582E93400F583E05A6008EE29
:1021B8002434F582EF802CEE2434F582EF3400F5D8
:1021C80083E0C0E0EE2436F582EF3400F583E0F5D5
:1021D800F0D0E084A8F0EE28F8EF3400F9E82438CD
:1021E800F582E93400F583E0F97F04021FB374F542
:1021F800121F07EAFEEBFFEE2434F582EF3400F5F8
:1022080083E0C0E0EE2435F582EF3400F583D0E0BA
:10221800F08E828F83A3A3A3A3A3A3A3C082C083AA
:102228008E828F83A3A3A3A3A3E0F8A3E0F9D083AE
:10223800D082E0C398F508A3E099F509EE247FF56C
:1022480082EF3400F583E064017069EE2480F58242
:10225800EF3400F583E0F8A3E0F98E828F83A3A31F
:10226800A3A3A3A3A3E0FCA3E0FD8E828F83A3A373
:10227800A3A3A3E0FAA3E0FBC3EA9CEB9D5010C321
:10228800EC98ED99402EC3EA98EB995027800EC33D
:10229800EA98EB994007C3EC98ED9940177CDC7DF0
:1022A80004EEFAEFFB120B5EEE247FF582EF3400AA
:1022B800F583E4F0EE2434F8EF3400F9E8FCE9FDA6
:1022C800EE2435F582EF3400F583E0F8EE2437F597
:1022D80082EF3400F583E0F50AE508850AF0A4F5F5
:1022E80008AAF0850AF0E509A42AF509E82508F8FE
:1022F800E43509F97A257B00121D79EA8C828D83F1
:10230800F0F8740758F97401B900028004C333D98E
:10231800FCFAE8131313541FF8EE28F8EF3400F909
:10232800E8245DF582E93400F583E05A6008EE247C
:1023380034F582EF802CEE2434F582EF3400F583F7
:10234800E0C0E0EE2436F582EF3400F583E0F5F0E6
:10235800D0E084A8F0EE28F8EF3400F9E82438F546
:1023680082E93400F583E0F9122C4D0221F1C08294
:10237800C083851882851983E0F8A3E0F9C3EA9C35
:10238800EB9D5010C3EC98ED99401BC3EA98EB996C
:102398005014800EC3EA98EB994007C3EC98ED9966
:1023A8004004790180027900D083D08222EAC39C5C
:1023B800FAEB9DFB2274EF121F079003A2E064085A
:1023C8006005E06407702A9061C8E060249003D03B
:1023D800E0F4601DE0F875F003A4C8AAF02AF974C7
:1023E800D228FE740339FF8E828F83A3A3A3E070E3
:1023F800030224ED906060E0C0E0EE2468F582EF0F
:102408003400F583D0E0F0750C45750D05750800AE
:10241800750900E5D914F50AE5D95403F50E6017D6
:102428007403650E605CE50A6010EE2467F582EFC0
:102438003400F583E070030224D2900540E0640183
:10244800602AEE2482F582EF3400F583E060047898
:102458000480027800850A08E508C398FA95E0FB2D
:10246800120A328A088B09EA45097005120D508054
:1024780074EE2482F582EF3400F583E070048A0C50
:102488008B0DE50A6012850C82850D83F50BE5D965
:10249800F0A3150BE50B70F6EE2482F582EF3400FD
:1024A800F583E0604474FC250AF50A780C121FF7DE
:1024B800AC0AA90EEEFAEFFB120BFA7402121E1AFE
:1024C800E97026AA08AB091211FA793D8E828F832A
:1024D800A3A3A3A3E0FA7B00120906EEFAEFFB120E
:1024E8000B76120C0C790080747403650E605685A7
:1024F8000A107511007810121FF7AC0CAD0DAA0860
:10250800AB09120BD67402121E1AEE2468F582EF7C
:102518003400F583E064807004747F8001E0F50C7A
:10252800780C121FFBE50EF50C780C121FFBA90A9C
:10253800AC08AD099003D0E0FA7B001208CA740217
:10254800121E1A80139003A2E06408600BAC0CAD55
:102558000DEEFAEFFB120C66120D5C79017F0A0290
:102568001FB374F5121F0774FC121E04EAFEEBFF7A
:102578008908A2AFE433F509C2AF806AEE2463F894
:10258800EF3400F97A007B00A2AFE433F50AC2AF5A
:1025980088828983E0FCA3E0FDEC4D603A8882895B
:1025A80083E0FAA3E0FB8A828B83E0FCA3E0FD884A
:1025B800828983ECF0A3EDF08A828B83E4F0A3F0A8
:1025C80088828983E0FCA3E0FDEC4D700A8882894B
:1025D80083A3A3E4F0A3F0E50AA2E092AF1211FAF4
:1025E8009004E3E004F0EE2463F582EF3400F58311
:1025F800E0F8A3E0F9E849603DEE2463F582EF34A2
:1026080000F583E02402FAA3E03400FBEA2402F593
:102618000AEB3400F50B780A121FF78A828B83E0E5
:10262800FCA3E0F9EEFAEFFB120B9A7402121E1AE1
:10263800E970030225849004E3E060639004E4E019
:10264800F89004E3E0C398500C7402650870509049
:1026580004E5E0604A8E828F83A3A3A3A3E08518D4
:1026680082851983F0A3E4F09004E3E0F874021281
:102678001E6EE8F0A3E4F09004E3E0F89004E2E0D2
:1026880028F07402121E6EAC82AD838518828519FB
:1026980083AA82AB8379011208D69004E3E4F0E5BB
:1026A80009A2E092AF7404121E1A0221F100000080
:1026B8008521878522C622C0E0C0D0E8C0E0E9C0F5
:1026C800E0EAC0E0EBC0E0ECC0E0EDC0E0EEC0E066
:1026D800C008C009C00AC00BC082C083C0F0A2AF46
:1026E800E433FEC2AF759B00906182E0A2E0501215
:1026F800E591A2E0500C7591FE74016521700312FA
:1027080023BDE0A2E55051E591A2E5504B7591DF5C
:102718009003A2E064076005E06408702374016513
:1027280021703579019003D0E0FA75F003A4CAA8A6
:10273800F028FB74D22AFA74033BFB12256A80182E
:10274800E0640D70139003C4E004F064287002E4A0
:10275800F07A00E0F9120D62906182E0A2E640038F
:10276800022806E591A2E640030228067591BF906B
:1027780003A2E064057008120C90120C9C800312EE
:102788000C96752100120CF0E99003A3F079001261
:102798000CE4120AD47A017B009003A1E0F9120F2D
:1027A8009C907803E064427055900544E014F07002
:1027B8004DC2AF1227BE00782AD0E0F618D0E0F656
:1027C800E59F540770057509FF800375097FC4C02C
:1027D800E07829E6F50808E65509F509740B780844
:1027E800121DE2D0E02508F8906270E0A2E740F8F8
:1027F800E8C333906272F0906270E0D2E0F09061CA
:1028080081E0A2E35009E5E9A2E3500375E9F7A3E3
:10281800E0A2E75009E591A2E7500375917FEEA287
:10282800E092AFD0F0D083D082D00BD00AD009D0BC
:1028380008D0E0FED0E0FDD0E0FCD0E0FBD0E0FA2C
:10284800D0E0F9D0E0F8D0D0D0E032C0E0C0D0C0BD
:1028580082C083906183E0A2E05009E5BFA2E05006
:102868000375BFFEE0A2E15009E5BFA2E150037580
:10287800BFFDE0A2E25009E5BFA2E2500375BFFB2D
:10288800E0A2E35009E5BFA2E3500375BFF7E0A259
:10289800E45009E5BFA2E4500375BFEFE0A2E5509C
:1028A80009E5BFA2E5500375BFDFE0A2E65009E5E0
:1028B800BFA2E6500375BFBFD083D0828088C0E036
:1028C800C0D0E8C0E0E9C0E0EAC0E0EBC0E0ECC09E
:1028D800E0EDC0E0C0F0E5A7A2E6500FE5A1A2E652
:1028E800500953A7BF75A1BF12292BE5A7A2E55030
:1028F8000CE5A1A2E5500653A7DF75A1DFE5A7A265
:10290800E15009E5A1A2E1500375A1FDE5A7A2E206
:10291800500CE5A1A2E2500653A7FB75A1FBD0F02D
:1029280002283C74F8121F077521019003A2E06485
:10293800067015120C2A8A828B83A3A3A3A3A3A3D0
:10294800E0FAA3E0FB120C7EA2AFE433FED2AF9014
:1029580003A8E0640170187A207B009003A1E0F9D5
:102968001210147A207B009003A1E0F9120FA290B4
:102978006182E0D2E6F0900541E0602185C62280C0
:10298800169003A7E064017008E5C654F84405F5FD
:10299800C653BEFC1226B87401652160E4EEA2E0BD
:1029A80092AF7F01021FB3008E238F248582288572
:1029B8008327851882851983E0CEA3E0CF852882F6
:1029C800852783EBC9EAC8EDCBECCA75F010C3E8DC
:1029D80033C8E933C9EA33CAEB33CBC3EA9EF526D9
:1029E800EB9FF525B35004AB25AA26EC33CCED3389
:1029F800CDD5F0DAAE23AF242274ED121F078A0872
:102A08008B098C0A8D0B7413121E6E780C121CBC69
:102A18007808790C1212DD7510017511C87512004D
:102A280075130050127808790C121C5B781079081D
:102A38001212DD50168010780C7908121C5B781081
:102A4800790C1212DD40047901800279007F0C02B2
:102A58001FB374ED121F078A088B098C0A8D0B743B
:102A680013121E6E780C121CBC780C79081212DD39
:102A780040117808790C121C5BAA08AB09AC0AADA6
:102A88000B802275100075110075120075130178FE
:102A980010790C121C5B78107908121C22AA10AB52
:102AA80011AC12AD1380A68A828B837508FF750955
:102AB800FF750AFF750B007808121CA97F04021F16
:102AC800B374F5121F078C828D837808121CBC8A98
:102AD800828B837808121C6FEA2404F8EB3400F91F
:102AE8008C828D83A3A3A3A3E0FCA3E0FD88828945
:102AF80083C3E09CF0A3E09DF088828983C3E094BF
:102B080020A3E0944E40268A828B837508FF7509BE
:102B1800FF750AFF750BFF7808121C488A828B83A1
:102B2800A3A3A3A3E02420F0A3E0344EF0022AAF2D
:102B380074F5121F07E9FE9004F7E0FAA3E0FBEE34
:102B4800C333F8E433F9743A28F582748139F5838C
:102B5800E02AF508A3E03BF5097808121FF77A4048
:102B68007B427C0F7D001229B07402121E1A8A085B
:102B78008B098C0A8D0B74107808121BEAAA08AB13
:102B8800097F04021FB374F1121F078A0C8B0D8C86
:102B98000E8D0F740F121E6EE0FAA3E0FB74111273
:102BA8001E6EE0F508A3E0F5097808121FF7EA247D
:102BB80001F508EB3400F509E4F50AF50B780C7912
:102BC80008121AE7750871750902780C7908121A43
:102BD800E7AA0CAB0DAC0EAD0F1229B07402121E91
:102BE8001A8B09EA450960047A0180027A00EC2A06
:102BF800FCED3400FD7413121E6EE0F8A3E0F9E852
:102C0800FEE9FFECF8EDF97A717B02121D7988086C
:102C180089098E828F837808121CCBECF8EDF97A3B
:102C2800717B02121D798A088B0974057808121DB8
:102C3800F18E828F83A3A3A3A3E508F0A3E509F08F
:102C48007F08021FB3C082C083E9906000F0D08380
:102C5800D08222C2AF02000022C0E0C0D0E8C0E0AB
:102C6800E9C0E0EAC0E0EBC0E0ECC0E0EDC0E0EEB7
:102C7800C0E0C082C083C0F0A2AFE433FED2AFC2CE
:102C8800C0E5D1A2E4500653D1EF1211B2EEA2E092
:102C980092AFD0F0D083D082D0E0FED0E0FDD0E07B
:102CA800FCD0E0FBD0E0FAD0E0F9D0E0F8D0D0D00A
:102CB800E032C0E0C0D0E8C0E0E9C0E0E5A8D2AFAB
:102CC800C2C7A2E7A2E792AFD0E0F9D0E0F8D0D02F
:102CD800D0E032C0E0C0D0E8C0E0E9C0E0C008C041
:102CE80009C082C083A2AFE433F9D2AF9009FAE0F9
:102CF800F8A3E0687008539AFBA374018025C2E921
:102D08009009FAE0F50874012508F0747A2508F5A9
:102D180082E43409F583E0F5C19009FAE0C39480B0
:102D28004002E4F0E9A2E092AFD083D082D009D08B
:102D380008D0E0F9D0E0F8D0D0D0E032C0E0C0D080
:102D4800E8C0E0E9C0E0EAC0E0EBC0E0ECC0E0EDDC
:102D5800C0E0EEC0E0C082C083C0F0A2AFE433FEA2
:102D6800D2AFC2C343FE8053F47FC297A2D8501497
:102D78007A9F7B81120F5AEAFCEBFD7A9F7B81795F
:102D8800001211A0A2D950147AAC7B81120F5AEA12
:102D9800FCEBFD7AAC7B8179001211A0EEA2E092E7
:102DA800AFD0F0D083D082D0E0FED0E0FDD0E0FC00
:102DB800D0E0FBD0E0FAD0E0F9D0E0F8D0D0D0E015
:102DC80032C0E0C0D0E8C0E0E9C0E0EAC0E0EBC053
:102DD800E0ECC0E0EDC0E0EEC0E0C082C083C0F02F
:102DE800A2AFE433FED2AFC2EBE58AE58AA2E25095
:102DF8001A538DFBC2EB7AF37B811211167C017D8D
:102E0800007A087B0A121110438D04808F02011F7B
:102E1800FFFFFFFFFFFFFFFFC082C083E9900B8425
:102E2800F002304A74F7121E9BE99002E1F07C1917
:102E38007D037AFF7BFF1208289002E274FFF0A35B
:102E4800F0A3E4F0A3F079051207B69002E1E0F9E7
:102E58001206D87A407B081209E47F01021F6D74BC
:102E6800F4121E9B8A088B09EB548060309002E1B3
:102E7800E0F9120F968A0A8B0BAE0AAF0BEE4F6081
:102E8800138E828F83E064B070031207C8EEFAEFE6
:102E9800FB120F8AAA08E5096480FB80047A007B8C
:102EA8000002301974F2121E9B74FC121E04EAFE12
:102EB800EBFFEE4F60387402121E6EEEF0A3EF12B5
:102EC800327EECF0A3ED12327EAA82AB831206D2D8
:102ED800E9F50870737412121E6E123E32E50A4547
:102EE8000B60658E828F83122F5AEE4F700575081E
:102EF8000280557A067B00120FDE8A0C8B0DA80C17
:102F0800A90DE8497005750813803D88828983E416
:102F1800122F64A3A3EEF0A3EF1242CBE50AF0A3AD
:102F2800E50BF09002E7122FEC9002E76017E0FC47
:102F3800A3E08003EAFCEBFD8C828D83122FEC70FA
:102F4800F38C828D83123D57A9087404121E1A024D
:102F580044CDA3A3A3A3E0FEA3E0FF22F0A3F0883F
:102F68008289832274F2121E9B890AE975F017A4DC
:102F7800FEAFF09002E6E4F09002E4122FEC600A53
:102F8800120FE49002E4E4F0A3F0EEFAEFFB120F64
:102F9800DE8A088B09EA4509602FEEFCEFFD79000F
:102FA800120F789002E4E508F0A3E509F07B0080B1
:102FB80008122FD6E4F0A3F00BEBC3950A40F2E514
:102FC8000A9002E6F07900800279130244CDEB758D
:102FD800F017A4F8A9F09002E4E028FAA3E0398AEF
:102FE80082F58322123AEDEA4B2274F4121E9B7981
:102FF80000EAA2E0501B7508D27509817808121FF3
:10300800F77C047D007A867B0B1207B07402121ECF
:103018001A7F04021F6DC082C0839002E7123051EC
:10302800601C88828983A3A3E06A7003A3E06B888D
:1030380082898370E8A3A3A3A3123AE980047A00E3
:103048007B00D083D08202011F1245A0E849227478
:10305800EE121E9B74FC121E04EAFEEBFF8518821A
:10306800851983E4F0A3F0EE2402123D3BEE24051B
:1030780012326CEE2404F50EEF123651E024FE6095
:103088003924FC604624FE605224FE605E24FE70F3
:103098000302317124FE70030231E924FE70030239
:1030A80031F824FE700302320724FC700302321642
:1030B80024FE70030232250232629003007417F076
:1030C800A3E41232861204500232628518828519EE
:1030D80083AC82AD831207CE0232328518828519FD
:1030E80083AC82AD831207D4023232850C08850D79
:1030F800097402121E6EAC82AD838508828509832D
:10310800123AE91206F68A0C8B0DAC0CAD0DEC4D9B
:103118006042E4F50CF50D780C121FF7750C00757C
:103128000D03780C121FF7750C01750D03780C123E
:103138001FF77408121E6E12200E7916123AE31247
:1031480008107408121E1AE9F50C700B123ADF12F7
:103158000468800F750C0185088285098312327412
:10316800123D57850C080232357402121E6EAC826D
:10317800AD83850C82850D83123AE91206F68A1012
:103188008B11AC10AD11EC4D6043850C82850D831D
:10319800A3A312200E7510007511037810121FF7E3
:1031A8007510017511037810121FF77408121E6E3E
:1031B80012200E7916123AE31208107408121E1A19
:1031C800E9F509700B123ADF12046E800F750901D8
:1031D800850C82850D83123274123D57850908804B
:1031E8004C851882851983AC82AD831207DA803A40
:1031F800851882851983AC82AD831207E0802B8500
:103208001882851983AC82AD831207E6801C851865
:1032180082851983AC82AD831207EC800D851882F4
:10322800851983AC82AD831207F2E9F508E50860D9
:10323800298E828F83A3E06414601F850E82850F18
:1032480083E090030012327E12459C900301123DE8
:1032580057E508A312328612044AEEFAEFFB12076A
:1032680074023C43F50CEF3400F50D221245A0859D
:10327800188285198322F085188285198322F07CAB
:10328800007D03850A82850B83123AED2274EE12C3
:103298001E9B74FC121E048A0A8B0B8C0E8D0FEA7F
:1032A8002405F508EB3400F5097C157D0079007AD2
:1032B800007B03120F78E5082402F50CE5091232A9
:1032C8006F8518828519838582108583117810127D
:1032D8001FF7850882850983A3A3A3A31237991230
:1032E8001FF7E5082405F510E5093400F5117810F5
:1032F800121FF7850C82850D83123AF31206F074BB
:1033080006121E1A8A108B11AE10AF11E50A24029C
:10331800F50AE50B123D3EEE4F700302345B801751
:103328007402121E6E123AE988828983EAF0A3EBCE
:10333800F0900300E004F0900300E0C3940540031C
:1033480002345BE4F510F5117810121FF77510E9D7
:103358007511027810121FF77510EA7511027810AE
:10336800121FF77406121E6E12200E7910EEFCEF73
:10337800FD123AE31208107408121E1AE9705E85ED
:103388000882850983A3A3A3A3A3A3A3E0F89002BB
:10339800E9E0687048123799121FF77CEA7D02E568
:1033A800082408FAE5093400FB120F727402121E91
:1033B8001AE960298E828F83A3A3A3A3123AE99006
:1033C8000300E0F51074027810121DF17401251045
:1033D800F58274033511F583EAF0A3EBF074021259
:1033E8001E6E8582108583117810121FF7740212E1
:1033F8001E6E12200E850C82850D831245B11206B1
:10340800FC7404121E1A8A108B11AE10AF119003AF
:1034180000E0F51075110074027810121DF17400A7
:103428002510F874033511F988828983A3122FECCB
:10343800700302331FE82403F8E93400F9EE4F6003
:10344800030233288882898374FFF0A3F090030075
:10345800E004F0900300E0600A123ADF12045C799D
:1034680000800B850882850983123D4E790A023C4B
:103478004374EA121E9B74FE121E048C128D13EA0A
:103488002405F50CEB1245BB122F5E750800750973
:1034980000EA2402F510EB3400F51185188285192D
:1034A8008385820A85830B780A121FF7850C82852B
:1034B8000D83A3A3A3A312365B121FF7E50C240503
:1034C800F50AE50D123D3E780A121FF7850C828534
:1034D8000D831245AF1206F07406121E1A8A0A8B63
:1034E8000BEA450B700302360CEA2404F50EEB12C6
:1034F8003651122F5E8A828B83A3A3A3E0F985102D
:1035080082851183123AE91206DEE9F509600302A1
:10351800360CE4F514F5157814121FF77514E975CF
:1035280015027814121FF77514EA7515027814122B
:103538001FF77406121E6E12200E7913AC0AAD0B1B
:10354800851082851183123AE91208107408121E38
:103558001AE9F509600302360C9002E9E0F8E5087B
:103568007009E02402900301F08017900301E0FC49
:10357800E82402FAE43400FBEA6C7001EB60030211
:103588003610850882AA8212379094141237885010
:1035980073850E82850F83E0C0E074022A123648D4
:1035A800D0E0F00508850E82850F83A3E0C0E08592
:1035B800080A7402250A123648D0E0F0050890027D
:1035C800E912365B121FF77CEA7D0285080A74024D
:1035D800250AFA74033400FB120F607402121E1AD3
:1035E8009002E9E02508F50874FF6E700374FF6F18
:1035F8006012EE24010EEF3400FFE508C394145066
:10360800030234A3E50860131239D48510828511AA
:1036180083123AE912046279008014E5097003758F
:10362800090A851282851383EEF0A3EFF0A90974C5
:1036380002121E1A7F0E021F6D85080C7402250CDB
:10364800F58274033400F583223400F50F850E8269
:10365800F583221242DE2274EE121E9B74FE121EA5
:10366800048C0E8D0FEA2405F50CEB12326F750BE6
:1036780000900300E4F0F50AEA2402F508EB3400B0
:10368800F5098049900300E0FA9002E9E0F8123762
:10369800909417123788400D900300E0F87416C311
:1036A800989002E9F0123799121FF77CEA7D0274AC
:1036B800012AFA74033400FB120F607402121E1AF6
:1036C8009002E9E0F8900300E028F0050AE50C24F0
:1036D80016F582E50D12364CE0F8E50AC39840036A
:1036E800023771900300E0C39416507DE50AC33396
:1036F800F8E433F9E50C28FEE50D39FF85188285D5
:103708001983AC82AD838E828F83123AE91206F652
:103718008A108B11AC10AD11EC4D7005750B018042
:1037280043E4F510F5117810121FF77510E97511BB
:10373800027810121FF77510EA7511027810121F1F
:10374800F77406121E6E12200E79168508828509F6
:1037580083123AE91208107408121E1AE9F50B7060
:103768000302368C123D4A80107C007D0385088256
:10377800850983123AE9120474A90B7402023C45C4
:10378800E99400C365D03322EA28F8E43400F9E864
:1037980022E0F51075110078102274EA121E9B744D
:1037A800FC121E048A0C8B0D8C128D13EA2405F56D
:1037B8000AEB123D3E750800750900E50A2402F57A
:1037C80010E50B3400F5117402121E6E85820E8509
:1037D800830F780E121FF7850A82850B83A3A3A394
:1037E800A312428A121FF7E50A2405F50EE50B34E9
:1037F80000F50F780E121FF7851082851183123D90
:1038080044123AE31206F07406121E1A8A0E8B0F3F
:10381800AE0EAF0FE50C2402F50EE50D3400F50FE2
:1038280080408882898374FFF0050812364174FF4E
:10383800F005089002E9E0F50C750D00780C121FF0
:10384800F77CEA7D0285080C7402250CFA740334AF
:1038580000FB120F607402121E1A9002E9E025089C
:10386800F508EE4F60718E828F83A3A3A3E0F985DC
:103878000E82850F83123AE91206DEE9F509EE2475
:103888000412326CE97044E4F514F5157814121F2B
:10389800F77514E97515027814121FF77514EA758F
:1038A80015027814121FF77408121E6E12200E7972
:1038B80011EEFCEFFD850E82850F83123AE912089E
:1038C800107408121E1AE9F5096027850C82850D07
:1038D800831239CA123D57E50870030239B012390C
:1038E800D4850E82850F83123AE912047A79000290
:1038F80039C5850882AA82EA9002E97009E02404A1
:10390800900301F08022E0F8900301E0F514E82428
:1039180004FCE43400FDEC65147001ED70C012374E
:1039280090941212378850B6850C82850D83E0C0BA
:10393800E074022A123648D0E0F00508850C82852A
:103948000D83A3E0C0E0123641D0E01239E685824B
:103958000C85830D780C121FF77404121E6E12204A
:103968000E8510828511831245B11206FC7404126B
:103978001E1A8A0C8B0DAE0CAF0D85080C7402252F
:103988000CF874033400F9EE4F700302382A8518D6
:1039980082851983E0888289831239E6A3E0C0E032
:1039A800123641D0E0023838E509700375090A85F6
:1039B8000A82850B831239CA123D57A90974040279
:1039C80036391245A085128285138322900301E0BF
:1039D800F5F0E50884900300F07C007D0322F005F3
:1039E800088518828519832274EC121E9B74FE12B6
:1039F8001E048A088B098C0E8D0FEA2405FEEB3411
:103A080000FF851882851983AC82AD838E828F83EF
:103A1800123AE91206F68A0A8B0BEE241812326C57
:103A2800EA450B7003023ABA123C2C5032851882D0
:103A3800851983123AE91208048A108B11EA451194
:103A4800606B7912AC0AAD0B850882850983123A3E
:103A5800E9851082851183121E99E9F50A7058E4E8
:103A6800F50AF50B780A121FF78E828F83A3A3E05D
:103A7800F50A780A121FF7EE2403123D3B780A1262
:103A88001FF78E828F83123AF31208167406121EDD
:103A98001AE9F50A7021850C82850D83E0701F856F
:103AA8000882850983123AE91204808011750A0E8A
:103AB8008009750A018004E50A6003123D4A850CF5
:103AC80082850D83E0600479008002A90A740212DD
:103AD8001E1A7F0C021F6D7C007D03850A82850BF0
:103AE80083123AED22E0FAA3E0FB22E0FCA3E0FD1A
:103AF800850882850983123AED2274EE121E9B74A2
:103B0800FE121E048A088B098C0C8D0DEA2405FE12
:103B1800EB3400FF750E00851882851983AC82ADE1
:103B2800838E828F83123AE91206F68A0A8B0BEA91
:103B3800450B7003023C18123C2C503585188285C1
:103B48001983123AE91208048A0E8B0FEA450F60AE
:103B58005E7912AC0AAD0B850882850983123AE9B1
:103B6800850E82850F83121E99E9F50E6003023CCB
:103B78001B850882850983123E32AA0AFB1207F8C0
:103B88008A108B11A810A911E849701E7AFF7BFFD3
:103B98001207F88A108B11A810A911E849606C88DF
:103BA800828983E50AF0A3E50BF0750A00800775A2
:103BB8000E0E805F050A9002E6E0FAE50AC39A5005
:103BC8004AE50A75F017A4FAABF088828983A3A3A3
:103BD800E02AFAA3E03BFB8A828B83123D44EC4D3A
:103BE80070D2750A17750B00780A121FF7EEFCEFF2
:103BF800FD120F607402121E1AEEFCEFFD8508829A
:103C0800850983123AE91204868014750E09800327
:103C1800750E01124598850C82850D83123D57A9B2
:103C28000E023783E5082402F508E5093400F50992
:103C38008A828B83A3A3A3E0A2E5227404121E1A2E
:103C48007F0A021F6D74EC121E9B8C108D11EA24E2
:103C580005F50CEB12326F750F00EA2402F50AEB3A
:103C6800123D3E850A82F583123AE91207F88A085E
:103C78008B09EA45097003023D30750E0080718595
:103C88000C82850D83E06401704F8E828F83A3A31D
:103C980012200E8E828F83A3A3A3A3E0F5127513BF
:103CA800007812121FF7EE2405F512EF3400F51311
:103CB8007812121FF7123AE31208167406121E1A27
:103CC800E9F50F6014850C82850D83E4F0124598A0
:103CD800851082851183123D577C177D007900EE8F
:103CE800FAEFFB120F788E828F83E4F0A3F0050EB3
:103CF8009002E6E0F8E50EC398501EE50E75F01741
:103D0800A4F8A9F0850882850983A3A31245C512E2
:103D18003D44EC4D6003023C878508828509837425
:103D2800FFF0A3F0E50F7006123AE312048CA90F16
:103D3800023ADAF50AEF3400F50B22A3E0FCA3E01F
:103D4800FD228E828F831245A0850E82850F83E81F
:103D5800F0A3E9F022C082C0839002E2E06A700317
:103D6800A3E06B70067AE27B0280047A007B000293
:103D7800304AC082C08378008C828D83E06A7003E9
:103D8800A3E06B7010E875F003A4F8A9F0EC28FA2A
:103D9800ED39FB8015088C828D83A3A3A3E06A709C
:103DA80003A3E06B60DF7A007B0002304A74F612EE
:103DB8001E9B1207C28A828B83E582458370067A2E
:103DC800007B008007A3A3A3A3123AE90244497425
:103DD800F2121E9BE9FE740E121E6E123E32741011
:103DE800121E6E1242AA8C828D83E064027036A382
:103DF8001245A6F50CA3E0F9A80C740268700374C8
:103E080029697021750C02750D00780C121FF7785E
:103E180008121FF7780A121FF7EEF912083A74060B
:103E2800121E1A800279010244CDE0F50AA3E0F5DA
:103E38000B2274E8121E9B74FB121E04E98518827B
:103E4800851983F08A168B17ECFEEDFF7510007448
:103E58001D121E6E12459C741D121E6E123D578E49
:103E6800828F83A3A3A3E0A2E4502D741D121E6EBB
:103E7800123AE91208048A828B83E582458370032B
:103E880002427B790AEEFCEFFDAA16AB17121E99C7
:103E9800E9F510600302427E741F121E6E1242AAD8
:103EA8007421121E6E123E327423121E6EE0F50E3D
:103EB800A3E0F50F8E828F83E0640260030242293B
:103EC800A312459C850882850983A3858212858370
:103ED80013EE240612326C88828983E0FAA3E0F993
:103EE800EA2400F514E439F515781412208101004C
:103EF800002801281E3F07000228E33F0328503FFF
:103F080000291A41012945410229E64003291A419D
:103F18000429C4412942E50E450F60030242248565
:103F28000C82850D8312429FFAE9FB8A828B83E01B
:103F3800850A82850B831242D5121FF78A828B83EA
:103F4800A3E0FCA3E00241AEE50E450F6003024288
:103F580024850A82850B837401F01242B285088297
:103F6800850983F07C007D008E828F83A3A3A3A3A1
:103F7800E02401FAA3E03400FB1206F6EA4B6041A4
:103F88008A828B83E02402F8850A82850B83E028E5
:103F9800F0EA2404F8EB3400F988828983E085127A
:103FA800828513831242E71242D5121FF78A828B49
:103FB80083123D43E5082403FAE5093400FB024176
:103FC800B3850A82850B83E02404F07C047D0079A4
:103FD80000AA12AB13120F7802427EE50E450F605D
:103FE800030242241242B2FEA3E0FF850A82850B37
:103FF800837404F0EE850882850983F0EF851282C8
:10400800851383F07403121E6EAC82AD83EEFAEF53
:10401800FB1206F68A0C8B0DEA450D70030240C7A9
:104028008A828B83A3A3122F5A7401121E6E858273
:104038000E85830F780E121FF77405121E6E12205C
:104048000E7CFF7DFF1206FC7404121E1A8B0FEA09
:10405800450F7033850C82850D8312428A121FF733
:10406800850C82850D83A312200E7C027D007A20A8
:104078007B821205287404121E1AE9700A74011250
:104088001E6E74FFF0A3F08E828F83E06402703995
:10409800750C02750D00780C121FF78E828F831233
:1040A8003D43E5082404FAE5093400FB120F607467
:1040B80002121E1A850A82850B83E0240280097485
:1040C80001121E6EEEF0A3EFF07401121E6E124282
:1040D8009BF07401121E6EA312429302421EE50E5B
:1040E800450F6003024224850C82850D83123D44EE
:1040F800AA16AB1712082E850A82850B837402F064
:10410800EA850882850983F0851282851383EB028C
:104118004221E50E450F60030242241242B2F8A381
:10412800E0F9850A82850B837402F0E885088285A8
:104138000983F0E9851282851383024221850C8266
:10414800850D83123AE9120F5AEAFC8C82A882C3C1
:10415800950EE4950F405FE8650E7002E50F700458
:104168007C008022851882851983E0FAE50E2AFAF8
:10417800E50F3400FBC3EA98EB94005003E0800598
:10418800E50ECCC39CFCEC850A82850B83F08C0A77
:10419800750B00780A121FF7850C82850D83E025C0
:1041A8000EFCA3E0350FFDAA08AB09120F607402DC
:1041B800121E1A02427E75100702427EE50E450F56
:1041C800705A850C82850D8312459C850A82850B61
:1041D800837407122F66124293122F66A3E085128A
:1041E80082851383F0E82402FAE93400FB8A828B83
:1041F800831242931242C212429BA31242CB124232
:10420800A4F0E82405F8E93400F988828983124289
:10421800A4A31242E7A3A3A3A3F0805A75100B80AE
:1042280055741D121E6E123AE91207C28A828B83D8
:10423800E5824583603D12459C880C890DE8450D53
:104248006031780E121FF7780A121FF77808121FCC
:10425800F77406121E6EE0F9EEFCEFFDAA16AB1716
:10426800850C82850D83121E997406121E1AE9F5B3
:1042780010800375100EA9107405121E1A7F100203
:104288001F6DE0F50E750F00780E22E08508828517
:104298000983221242F1221245A0E8221242F1A318
:1042A800A322E0F508A3E0F50922850C82850D8399
:1042B800E0F8A3E0F5838882E022A3A3F08A828B4A
:1042C80083A322F088828983A3A3A3A322F08A82EE
:1042D8008B831242DE22E0F50A750B00780A22F081
:1042E80088828983A31242F122E0850882850983A6
:1042F800A3A32274EE121E9B74FE121E048A0A8B5C
:104308000BECFAEDFB7414121E6EE0F510A3E0F549
:10431800117416121E6EE0FE7418121E6EE0F50E71
:10432800A3E0F50F851882851983AC82AD83120648
:10433800F68A0C8B0DEA450D60498518828519832C
:10434800123AE91207C28A828B83E5824583602F7D
:10435800A3A31242AAE50845096024780E121FF7A4
:104368007810121FF7EEF9AC0CAD0DAA0AAB0B854D
:104378000882850983121E997404121E1A80067910
:104388000E8002790102378374F6121E9B74FE12A6
:104398001E04740C121E6E12429F851882851983A2
:1043A800F07401121E6EE9F0E4F508F509780812B8
:1043B8001FF77508027808121FF77404121E6E851D
:1043C80082088583097808121FF7120816740612E6
:1043D8001E1A7402121E1A806874F7121E9BEAFED7
:1043E800EBFF89087C197D0312082EEA5402600B42
:1043F800A908EEFAEFFB1206EA80027901022E62A2
:1044080074F6121E9B74FF6A700374FF6B70168C2F
:10441800828D8312444EE4F08C828D83A3A3A31271
:10442800444EA380181207FE8A088B09A808A90918
:10443800E849600D8882898374FF122F64A3A3E47E
:10444800F07F02021F6D74FFF0A3F08C828D83A3AE
:10445800A32274F6121E9B1207FE8A828B83E582C2
:1044680045836006A3A3E0FA80027A007B0080D12E
:1044780074F2121E9B8A088B09ECFEEDFF740E1273
:104488001E6EE0F50A1207FE8A0C8B0DA80CA90D0A
:10449800E8497026EEFCEFFD7AFF7BFF1207FE8AE3
:1044A8000C8B0DA80CA90DE84970047911801688A9
:1044B800828983E508F0A3E509F088828983A3A3AC
:1044C800E50AF079007F06021F6D74EE121E9BEA62
:1044D800FEEBFF8C088D09890C7414121E6E1245B0
:1044E8009C7416121E6E123AE9750D00E8496003B5
:1044F8000245907402650C600302458B7412121E0B
:104508006E1245A6FCA3E0F9EC2400F50EE439F59B
:104518000FEAF4F8EBF4F9EC58F8E50F59F9E84923
:10452800705CE5082406F8ED3400F9880A890B88E0
:1045380082F5831245B112082E8A108B11E50E659B
:10454800107004E50F65116042780E121FF7850A96
:1045580082850B831245B11208347402121E1AE9BF
:10456800F50D7027780E121FF7850882850983A339
:10457800A31245AF1208467402121E1A800D750D5B
:10458800808008750D0D8003750D0BA90D023C4840
:104598008E828F831245A022E0F8A3E0F92212450B
:1045A800A088828983E022A3A3E0FCA3E0FDEEFAC1
:1045B800EFFB223400F50D850C82F58322E028FEFE
:1045C800A3E039FF8E828F832274F2121E9BEAFECB
:1045D800EBFF890B7401650B600E7402650B706A42
:1045E8007901120A02E97062EEFAEFFB1207F88A03
:1045F800088B09EA45096047750A00800B7C177D1E
:10460800007900120F78050A9002E6E0F8E50AC37F
:10461800985021E50A75F017A4F8A9F08508828555
:104628000983A3A3E028FAA3E039FB8A828B8312CB
:10463800305170C985088285098374FFF0A3F07C26
:10464800197D03EEFAEFFB1208280244CD74F2122A
:104658001E9B8A088B09ECFEEDFF740E121E6E126B
:104668003E32900B84E0F4603D7A097B00120F849F
:10467800EA4B60328A828B8374B1F0A3E41242C49D
:10468800A31242C2A3E508F0A3E5091246B1EEF071
:10469800A3EF1246B1A3A3E50AF0A3E50BF0900B34
:1046A80084E0F9120F900244CDF08A828B83A3A391
:1046B800A3A3A322C082C0839061907404F0A37462
:1046C80048F0A37402F09061807440F09061BC746B
:1046D80003F09061877419F0906265741BF0906222
:1046E80049E0C3941390619C400A7409F090606695
:1046F80074018007740DF0906066E4F090619A741C
:1047080033F0A37455F09061A0743AF090053FE03F
:1047180064017009C2919003A6746780059003A68E
:104728007461F0902E1EE493906186F0902E18E448
:1047380093F46027E493540FF8906185E068601261
:10474800E5C654804449F5C6E59E547F644970F82F
:10475800E8F053C680E59E547F70FA7905120D443F
:104768000248EAC082C083E5A8F853A87E90618118
:10477800E4F0A3F0A3F0C2BA539AFEC289759B0075
:10478800C2C275E90075910075BF0075A91175B9A8
:1047980005906181F0A374C0F0A3E4F0D2BA439A03
:1047A8000174805842A80248EAC082C08374F81293
:1047B8001E049003A4E0F8A3E0F9E8497003024856
:1047C800DF9003A4E0544060237908851882851996
:1047D80083AA82AB83120BB8851882851983AA82B3
:1047E800AB831208B29003A4E054BFF0E054806099
:1047F80010790C7A657B05120BB89003A4E0547FFE
:10480800F0E0A2E0503190619A7433F0A37455F04F
:104818009061A0743AF090053FE064017009C2917C
:104828009003A6746780059003A67461F01208B817
:104838009003A4E054FEF0E05402603190619A7451
:104848003FF0A3745AF09061A0747FF090053FE0A8
:1048580064017009D2919003A6747180059003A633
:10486800746AF01208B89003A4E054FDF0E0540410
:104878006013902E1CE493906186F01208BE90039A
:10488800A4E054FBF0E054086013902E1DE49390CC
:104898006186F01208BE9003A4E054F7F0E05410CB
:1048A8006013902E1EE493906186F01208BE900368
:1048B800A4E054EFF0E05420600A1208BE9003A46C
:1048C800E054DFF0A3E05401600D120AE01208C4BE
:1048D8009003A5E054FEF07408121E1A0248EAF08C
:1048E800A3F0D083D08202011F74EC121E9B74F4D3
:1048F800121E04851882851983AC82AD8375838165
:104908007582EF7404121D17902E1C93F460030235
:104918004A7D907808E0C394025003024A5D74040B
:10492800121E6EAC82AD837583817582BE740812C7
:104938001D1785188285198385821285831374044F
:10494800121E6EAC82AD83750EFF750FFF7FFF7E62
:1049580000750C48750D78801574086E700302494F
:10496800F174096E70030249F1740A6E607B850C5C
:1049780082850D837808121CBC8C828D83A909E579
:104988000AC9F8881074187808121BEAE510450857
:10499800F8C3E098A3E099850C82850D8378081206
:1049A8001CBC40188C828D8374187808121BEAE5A9
:1049B800104508F8E0C398F8A3E0801C741878083C
:1049C800121BEAE5104508FAE9FB8C828D83E0F8B2
:1049D800A3E0F9EAC398F8EB99F9C3E8950EE995CD
:1049E8000F5006880E890FEEFF0EE50C2404F50C17
:1049F800E50D3400F50DEEC39413500302496174BC
:104A0800FF650E700474FF650F60238F08740278C9
:104A180008121DF174482508F58274783509F58364
:104A28007808121CBC851282851383E508F0EC24F3
:104A380002FCED3400FD851282851383A385821262
:104A4800858313740C121E6EE5826C7003E5836D0A
:104A5800600302494F7508017509007808121FF7AD
:104A68007402121E6EAC82AD837A877B0B121134EE
:104A78007402121E1A740C121E1A7F0C021F6DC0CB
:104A880082C0839061AE7468F0A3746AF090624546
:104A980074FBF0A304F053F4FD43FE0290053F7449
:104AA80001F09061A0E0643A90619A70237433F049
:104AB800A37455F09061A0743AF074016401700910
:104AC800C2919003A6746780289003A67461802120
:104AD800743FF0A3745AF09061A0747FF07401647D
:104AE800017009D2919003A6747180059003A67491
:104AF8006A0248E97F08021F6DC082C0839004F1F2
:104B0800E06401700A9004F6E06004790C80027990
:104B1800000248EAC082C08375E1F19004F4E060C5
:104B28005B14600914605F14605714705E120AF217
:104B38009004EAE0F97AEB7B04120CC67AD67BBEC5
:104B48007C897D8E120CFC7A557B557C557D001234
:104B58000CD29004F5E0F9120CDE7901120D3890B0
:104B680004E8E0F8A3E0C82416F582E83400F583E9
:104B7800740AF0A3740BF079000248EA120AF8806C
:104B8800AF120AFE80AA120B0480A5791280EA747B
:104B9800F0121E9B75D90D9004D5E0A2E0E4331302
:104BA80013F89004EAE0C4333354C0484401F5D9FB
:104BB80078E8790488828983A3A3A3E0F5D9888259
:104BC8008983A3A882A983E864EE7003E96404706A
:104BD800E378D5790488828983A3E0F5D988828926
:104BE80083A3A882A983E864DB7003E9640470E501
:104BF80075E1959004D5E0F97AD67B04120CCC9037
:104C08000BA674A4F0A3740AF0A37400F0A3740CA8
:104C1800F0A37400F0A3740CF0A37400F0A3740C58
:104C2800F0A374AAF0A3740AF0A37400F0A3740CA0
:104C3800F0A374C2F0A3740AF0900BB47400F0A34C
:104C4800740CF0A37400F0A3740CF0A37400F0A328
:104C5800740CF0A37400F0A3740CF0A37400F0A318
:104C6800740CF0A37400F0A3740CF09004F4E064E6
:104C7800019004E87012E0F8A3E0F5838882A3A30A
:104C88007508007509088010E0F8A3E0F5838882AC
:104C9800A3A3750804750900750A00750B00780848
:104CA800121C35750CFF750DFF750EFF750F00781A
:104CB80008790C121C839004E8E0F8A3E0C8240EDD
:104CC800F582E83400F5837808121CCB9004E8E0FC
:104CD800F8A3E0C82414F582E83400F5837413F0CF
:104CE8009003A27402F0024AFC74F7121E9B90040F
:104CF800FAE02407F5D99004EAE0C4333354C0F548
:104D0800D978E8790488828983A3A3A3E0F5D988B0
:104D1800828983A3A882A983E864EE7003E9640406
:104D280070E39004FAE0601F78E87904FAE8241345
:104D3800F582E93400F583E0F5D988828983A3A850
:104D480082A9831AEA70E690051AE02407F5D9903B
:104D580004EAE0C4333354C04404F5D978E879044C
:104D680088828983A3A3A3E0F5D988828983A3A82D
:104D780082A983E864EE7003E9640470E390051A7D
:104D8800E0601F78E87904FAE82433F582E9340012
:104D9800F583E0F5D988828983A3A882A9831AEAD2
:104DA80070E675E195900BA674B0F0A3740AF0A3B1
:104DB8007400F0A3740CF0A37400F0A3740CF0A3B7
:104DC8007400F0A3740CF0A374AAF0A3740AF0A3FF
:104DD8007400F0A3740CF0A374C2F0A3740AF090EA
:104DE8000BB47400F0A3740CF0A37400F0A3740C5B
:104DF800F0A37400F0A3740CF0A37400F0A3740C77
:104E0800F0A37400F0A3740CF0A37400F0A3740C66
:104E1800F09004E8E0F8A3E0C8240EF582E8340036
:104E2800F58374FFF0A3F0A3F0A3F09004E8E0F892
:104E3800A3E0C82414F582E83400F5837412F090D6
:104E480003A27401F0FF021F6D74F7121E9B9004F9
:104E5800FAE02407F5D99004EAE0C4333354C04497
:104E680002F5D978E8790488828983A3A3A3E0F5B9
:104E7800D988828983A3A882A983E864EE7003E9AC
:104E8800640470E39004FAE0601F78E87904FAE8B3
:104E98002413F582E93400F583E0F5D98882898303
:104EA800A3A882A9831AEA70E675E195900BA67407
:104EB800BCF0A3740AF0A374BCF0A3740AF0A37442
:104EC800BCF0A3740AF0A374BCF0A3740AF0A37432
:104ED800BCF0A3740AF0A374BCF0A3740AF0A37422
:104EE800C2F0A3740AF0900BB47400F0A3740CF031
:104EF800A37400F0A3740CF0A37400F0A3740CF076
:104F0800A37400F0A3740CF0A37400F0A3740CF065
:104F1800A37400F0A3740CF09004E8E0F8A3E0C8D0
:104F2800240EF582E83400F58374FFF0A3F0A3F0B3
:104F3800A3F09004E8E0F8A3E0C82414F582E8346C
:104F480000F5837414F09003A27404F002521874EC
:104F5800F7121E9B9004FAE02407F5D99004EAE0C2
:104F6800C4333354C04406F5D978E8790488828973
:104F780083A3A3A3E0F5D988828983A3A882A98300
:104F8800E864EE7003E9640470E39004FAE0601FDB
:104F980078E87904FAE82413F582E93400F583E027
:104FA800F5D988828983A3A882A9831AEA70E69032
:104FB800051AE02407F5D99004EAE0C4333354C055
:104FC8004404F5D978E8790488828983A3A3A3E007
:104FD800F5D988828983A3A882A983E864EE70033F
:104FE800E9640470E390051AE0601F78E87904FA30
:104FF800E82433F582E93400F583E0F5D98882891D
:1050080083A3A882A9831AEA70E675E195900BA696
:1050180074B6F0A3740AF0A37400F0A3740CF0A3A0
:105028007400F0A3740CF0A37400F0A3740CF0A344
:105038007400F0A3740CF0A37400F0A3740CF0A334
:1050480074C2F0A3740AF0900BB47400F0A3740C4B
:10505800F0A37400F0A3740CF0A37400F0A3740C14
:10506800F0A37400F0A3740CF0A37400F0A3740C04
:10507800F0A37400F0A3740CF09004E8E0F8A3E047
:10508800C8240EF582E83400F58374FFF0A3F0A37A
:10509800F0A3F09004E8E0F8A3E0C82414F582E84F
:1050A8003400F5837415F09003A27403F0025218CB
:1050B800C082C0839004E8E0F8A3E0C82406F58223
:1050C800E83400F583E40248E774F7121E9B900366
:1050D800D0E0F875F003A4C8AAF02AF974D228F829
:1050E800740339F9E82405FAE93400FB8A828B83D2
:1050F800E0FCA3E0FD88828983A3A3A3A3A3A3A3C1
:10510800A3A3ECF0A3EDF088828983A3A3A3A3A3B0
:10511800A3A3E024FFF8A3E034FFF98A828B83E895
:10512800F0A3E9F002521874F7121E9BEAFEEBFF97
:105138009061D0E0600302520C75D90E75D90375E1
:10514800D904EE248BF582EF3400F583E582240838
:10515800F8E5833400F9E0F5D9A3E865827003E93E
:10516800658370F2EE2483F582EF3400F583E582DF
:105178002404F8E5833400F9E0F5D9A3E8658270E2
:1051880003E9658370F275E1957908EE248BFAEFEF
:105198003400FB120BAC7904EE2483FAEF3400FBE5
:1051A800120BAC7C00EEF8EFF9ECFAC3E49AFA952E
:1051B800E0FBEE2AFAEF3BFBEA248AF582EB3400A7
:1051C800F583E0C0E0E824AAF582E93400F583D04D
:1051D800E0F00C88828983A3A882A983ECC3940891
:1051E80040C7EE246FF582EF3400F583E0F8A3E0C2
:1051F800F9EE2471F582EF3400F583E8F0A3E9F0C5
:105208007901800279008008F0EEA2E092AF79007F
:105218007F01021F6DC082C08375D90275D90375DD
:10522800D90575E195EA246FF582EB3400F583E042
:10523800F8A3E0F9EA2471F582EB3400F583E8F08D
:10524800A3E9F079010248EA74F6121E9BEAFEEB24
:10525800FF9005457406F07508457509057808122C
:105268001FF77C017903120BF47402121E1A75D908
:105278000675D903758245758305E0F5D9A3E582DE
:10528800644A7004E583640570F075E1959003A2A3
:10529800E06408701EEE246FF582EF3400F583E0B9
:1052A800F8A3E0F9EE2471F582EF3400F583E8F015
:1052B800A3E9F0790102551E74F6121E9BEAFEEB73
:1052C800FF9061D0E070667801900545740BF0900E
:1052D80003A2E06407701975084575090578081276
:1052E8001FF77C017903120BF47402121E1A780559
:1052F800740128F5D975D903758245758305E8FACF
:10530800E0F5D9A31AEA70F875E195EE246FF582F5
:10531800EF3400F583E0F8A3E0F9EE2471F582EFAD
:105328003400F583E8F0A3E9F079018002790002FE
:10533800551E74F7121E9BEAFEEBFF75D90375D94B
:105348000375D90DEE24DDF582EF3400F583E0F521
:10535800D975E1957904120D02EE246FF582EF34C8
:1053680000F583E0F8A3E0F9EE2471F582EF34004C
:10537800F583E8F0A3E9F0790102521874F6121ED9
:105388009BEAFEEBFF9061D0E0F87480C398FAEED8
:105398002482F582EF3400F583E06004780480020B
:1053A8007800E8240BF8EAC39850030254497D09B1
:1053B800900545EDF0EE24E2F8EF3400F97A467BEB
:1053C800057C0888828983E08A828B83F0888289B9
:1053D80083A3A882A9838A828B83A3AA82AB831C16
:1053E800EC70E0EE2482F582EF3400F583E0601D76
:1053F8007508457509057808121FF77C097903EEC9
:10540800FAEFFB120BF47402121E1A7D0D74012DB3
:10541800F5D975D9037582457583058D08E0F5D9E9
:10542800A31508E50870F675E1957904120D02EEEA
:10543800241DF582EF3400F583E4F0A3F0790180B0
:1054480002790002551E74F6121E9BEAFEEBFF90CD
:1054580061D0E0F87480C398FAEE2482F582EF34C4
:1054680000F583E06004780480027800E82408F8F6
:10547800EAC398500302551C7806900545740CF051
:105488009003BFE0900546F09003C0E0900547F018
:105498009003C1E0900548F09003C2E0900549F000
:1054A8009003C3E090054AF0EE2482F582EF3400C1
:1054B800F583E0601B7508457509057808121FF724
:1054C8007C067903EEFA120BF47402121E1A780A9B
:1054D800740128F5D975D90375824575830588083F
:1054E800E0F5D9A31508E50870F675E19579041279
:1054F8000D02EE246FF582EF3400F583E0F8A3E0A7
:10550800F9EE2471F582EF3400F583E8F0A3E9F0B1
:105518007901800279007F02021F6D74F6121E9BCA
:10552800EAFEEBFF9061D0E0F87480C398FAEE24AD
:1055380082F582EF3400F583E06004780480027815
:1055480000E82404F8EAC39850030255FD78029055
:105558000545E8F0EE24F4F582EF3400F583E09099
:105568000546F0EE2482F582EF3400F583E0601BF7
:105578007508457509057808121FF77C027903EE4E
:10558800FA120BF47402121E1A7806740128F5D95F
:1055980075D9037582457583058808E0F5D9A31583
:1055A80008E50870F675E195EE2473F582EF34008E
:1055B800F583E4F0EE247FF582EF3400F583E4F020
:1055C800EE241DF582EF3400F583E4F0A3F07904AE
:1055D800120D02EE240DF582EF3400F583E0F8A3F6
:1055E800E0F9EE2471F582EF3400F583E8F0A3E9E1
:1055F800F079018002790002551E74F6121E9B9004
:1056080061D0E0F87480C398FCEA2482F582EB3418
:1056180000F583E06004780480027800E82404F848
:10562800ECC398405B79029005457407F0EA24F5CD
:10563800F582EB3400F583E0900546F0EA2482F524
:1056480082EB3400F583E060187508457509057824
:1056580008121FF77C0209120BF47402121E1A7941
:1056680006740129F5D975D903758245758305E94D
:10567800F8E0F5D9A318E870F875E195790180028A
:10568800790002551E74F5121E9BE9FCA2AFE433A3
:10569800F50AC2AF7D0080010DEA246EF582EB3475
:1056A80000F583E0F8EDC398501A8D08EA2508F84C
:1056B800EB3400F9E8246AF582E93400F583E06CFC
:1056C80070D68024EA246EF8EB3400F9E0FEEA2E66
:1056D800FAEB3400FBEA246AF582EB3400F583EC3C
:1056E800F088828983E004F0E50AA2E092AF7F03A4
:1056F800021F6D74F6121E9BA2AFE433FDC2AFEA1F
:10570800246EF582EB3400F583E014F07C006036FB
:105718008C08EA2508F8EB3400F9E8246BF582E9EF
:105728003400F583E0C0E0E8246AF582E93400F546
:1057380083D0E0F00CEA246EF582EB3400F583E0C8
:10574800F8ECC39840CAEA246DF582EB3400F5837F
:1057580074FFF0EA2469F582EB3400F583E4F0ED98
:10576800A2E092AF02551EC082C083E5A8F8C2AF7E
:10577800EA246AF582EB3400F583E9F0EA2469F556
:1057880082EB3400F583E4F0E8A2E7A2E792AF02E7
:1057980048EA74F3121E9BEAFEEBFFECFAEDFB8A73
:1057A800828B83A3A3A3A3E0541FF0EE2436F582D3
:1057B800EF3400F583E4F0F50AEEFCEFFD8A828B06
:1057C80083E0C0E0EC245DF582ED3400F583D0E0A1
:1057D800F0750B00E50A33333354F8F50C8A828BE5
:1057E80083E0F508750900E50B7808121DD2E50875
:1057F800A2E0502FEE2436F8EF3400F9888289832E
:10580800E0F508EE2508F508EF3400F509E5082469
:1058180038F582E5093400F583E50CF08882898340
:10582800E004F0050B050CE50BC3940840AF050A2E
:105838008A828B83A3AA82AB838C828D83A3AC825A
:10584800AD83E50AC3940550030257C57F05021FBF
:105858006D74F7121E9B9003CEE064017003025929
:10586800B77A009003D4E060030259B77401F0A33B
:10587800E4F0A3F090043404F0900439F09003D7D6
:10588800E4F0A3F0A3F0A3F09003E104F090040780
:10589800E4F09003EAF0A3F0A3F0A3F0A3F0A3F0E0
:1058A800A3F0900451F0900445F090043A7480F00D
:1058B800A3E4F0900440F09004BCF0A3F0A3F0A39C
:1058C800F0A3F0A3F0A3F0A3F09004C5F090045463
:1058D800F09004A4F0A3F0A3F0A3F0A3F0A3F0A326
:1058E800F0A3F0A3F0A3F09004B0F09004B2F0900D
:1058F80004AEF09004C8F0A3F0A3F0A3F0A3F0A3C3
:10590800F0A3F0A3F078CE7903E8246EF582E934A9
:1059180000F58374FFF00A88828983A3A882A9838B
:10592800EAC3940440E37ACE7B0378DC7904888266
:105938008983E0C0E0EA2461F582EB3400F583D086
:10594800E0F088828983A3A882A9838A828B83A3B3
:10595800AA82AB83E864E17003E9640470D07ACE6C
:105968007B0378B5790388828983A3E0C0E0EA24C1
:10597800E6F582EB3400F583D0E0F088828983A3D2
:10598800A882A9838A828B83A3AA82AB83E864BD99
:105998007003E9640370CF9003CEE004F0640170F3
:1059A800089003D6E09003D0F07AD27B0380047A83
:1059B800007B00025218C082C0839003D5E4F090A7
:1059C80003D4F09003CEF0A3F0A374FFF075E1F1D7
:1059D8000248EAC082C083780079009003D5E0606D
:1059E8000478D2790388828983A3A3A3A3E0F90268
:1059F80048EA74F6121E9BEAFEEBFFEE2463F5827A
:105A0800EF3400F583E0F8A3E0F9E8497003025A9F
:105A18009FEE2463F8EF3400F97A007B00A2AFE42C
:105A280033F508C2AF88828983E0FCA3E0FDEC4D22
:105A3800603A88828983E0FAA3E0FB8A828B83E05C
:105A4800FCA3E0FD88828983ECF0A3EDF08A828BC9
:105A580083E4F0A3F088828983E0FCA3E0FDEC4DA9
:105A6800700A88828983A3A3E4F0A3F0E508A2E082
:105A780092AF1211FA9004E2E004F09004E3E0041B
:105A8800F0EE2463F582EF3400F583E0F8A3E0F943
:105A9800E8496003025A198E828F83A3A3A3E060AA
:105AA8000F8E828F83A3A3A3E4F09003CFE014F0BA
:105AB8009003CEE014F070069003D074FFF08E824D
:105AC8008F83A3A3E4F09004E1E0700D9003CFE08E
:105AD800640170057900120CE4EEFAEFFB120C2455
:105AE80002551E74F7121E9BEAFEEBFF8E828F830F
:105AF800A3A3A3A3E0FA7B00120906EEFAEFFB12B8
:105B08000B76120C0C025218C082C08378B5790348
:105B180088828983A3E4F088828983A3A882A983E1
